2600000008000000000700070004202601010000000800        100000202601011039412026010801000000070451603SERNA RAZURI  ANDREA SHAKIRA                                MULTIPAGOSEE                  BN.COM.PE                     1SOLES          0000000000000000000000000006700000001MINISTERIO DE TRANSPORTES Y COMUNICACIONES                  ENTIDAD EXTERNA                                             PASARELA PAGO ENTIDAD EXTERNA                               1767281908801  00000296090    000000000000000000000  20260101103830202601011038300000000000000020260101103941AEX0000101153933824492
2600000013310000000700070004202601010000001331        100000202601011210232026010801000000072152131LIPA OSCCO  BENGHY JUNIOR                                   MULTIPAGOSEE                  BN.COM.PE                     1SOLES          0000000000000000000000000006700000001MINISTERIO DE TRANSPORTES Y COMUNICACIONES                  ENTIDAD EXTERNA                                             PASARELA PAGO ENTIDAD EXTERNA                               1767287297915  00000296090    000000000000000000000  20260101120819202601011208190000000000000020260101121023AEX0000101171020855772
2600000022510000000700070004202601010000002251        100000202601011429262026010801000000076159632UEHARA CHINEN TANIA MEGUMI                                  MULTIPAGOSEE                  BN.COM.PE                     1SOLES          0000000000000000000000000006700000001MINISTERIO DE TRANSPORTES Y COMUNICACIONES                  ENTIDAD EXTERNA                                             PASARELA PAGO ENTIDAD EXTERNA                               1767295691255  00000296090    000000000000000000000  20260101142813202601011428130000000000000020260101142926AEX0000101192923898907
2600000007130000000700070004202601010000000713        100000202601011022092026010801000000045398409PACOMPIA CONDORI  EDWARD SIXTO                              MULTIPAGOSEE                  BN.COM.PE                     1SOLES          0000000000000000000000000014700000001MINISTERIO DE TRANSPORTES Y COMUNICACIONES                  ENTIDAD EXTERNA                                             PASARELA PAGO ENTIDAD EXTERNA                               1767280845192  00000296090    000000000000000000000  20260101102046202601011020460000000000000020260101102209MCP0000101152200818462
2600000000590000000700070004202601010000000059        100000202601010113432026010801000000072243116GARCIA MORETO JOSE PIERO                                    MULTIPAGOSEE                  BN.COM.PE                     1SOLES          0000000000000000000000000006700000001MINISTERIO DE TRANSPORTES Y COMUNICACIONES                  ENTIDAD EXTERNA                                             PASARELA PAGO ENTIDAD EXTERNA                               1767247874434  00000296090    000000000000000000000  20260101011115202601010111150000000000000020260101011343VSA000995260019314205
2600000000690000000700070004202601010000000069        100000202601010148522026010801000000070297260RODRIGUEZ GALARZA  PAUL SANTIAGO                            MULTIPAGOSEE                  BN.COM.PE                     1SOLES          0000000000000000000000000006700000001MINISTERIO DE TRANSPORTES Y COMUNICACIONES                  ENTIDAD EXTERNA                                             PASARELA PAGO ENTIDAD EXTERNA                               1767249913932  00000296090    000000000000000000000  20260101014515202601010145150000000000000020260101014852VSA000996260010308987
2600000000910000000700070004202601010000000091        100000202601010217202026010801000000074742007APAZA CANCHI  CRISTHIAN RODRIGO                             MULTIPAGOSEE                  BN.COM.PE                     1SOLES          0000000000000000000000000006700000001MINISTERIO DE TRANSPORTES Y COMUNICACIONES                  ENTIDAD EXTERNA                                             PASARELA PAGO ENTIDAD EXTERNA                               1767251791639  00000296090    000000000000000000000  20260101021633202601010216330000000000000020260101021720VSA000995260019351439
2600000001010000000700070004202601010000000101        100000202601010301292026010801000000074142288LASTRETO AHUMADA  STEFANO ALEJANDRO                         MULTIPAGOSEE                  BN.COM.PE                     1SOLES          0000000000000000000000000006700000001MINISTERIO DE TRANSPORTES Y COMUNICACIONES                  ENTIDAD EXTERNA                                             PASARELA PAGO ENTIDAD EXTERNA                               1767254435927  00000296090    000000000000000000000  20260101030037202601010300370000000000000020260101030129VSA000995260019369770
2600000001160000000700070004202601010000000116        100000202601010338582026010801000000060915904MATENCIO ESPIRITU  SEBASTIAN                                MULTIPAGOSEE                  BN.COM.PE                     1SOLES          0000000000000000000000000006700000001MINISTERIO DE TRANSPORTES Y COMUNICACIONES                  ENTIDAD EXTERNA                                             PASARELA PAGO ENTIDAD EXTERNA                               1767256428988  00000296090    000000000000000000000  20260101033350202601010333500000000000000020260101033858VSA000996260010360000
2600000002280000000700070004202601010000000228        100000202601010717272026010801000000071694873LUNA VASQUEZ  MIGUEL ANGEL                                  MULTIPAGOSEE                  BN.COM.PE                     1SOLES          0000000000000000000000000006700000001MINISTERIO DE TRANSPORTES Y COMUNICACIONES                  ENTIDAD EXTERNA                                             PASARELA PAGO ENTIDAD EXTERNA                               1767269760977  00000296090    000000000000000000000  20260101071602202601010716020000000000000020260101071727VSA000995260019464376
2600000002520000000700070004202601010000000252        100000202601010743232026010801000000042108280ZAVALA HEREDIA JUAN CARLOS                                  MULTIPAGOSEE                  BN.COM.PE                     1SOLES          0000000000000000000000000006700000001MINISTERIO DE TRANSPORTES Y COMUNICACIONES                  ENTIDAD EXTERNA                                             PASARELA PAGO ENTIDAD EXTERNA                               1767271067981  00000296090    000000000000000000000  20260101073749202601010737490000000000000020260101074323VSA000995260019469733
2600000002720000000700070004202601010000000272        100000202601010751002026010801000000000662432QUENTA QUISPE  VIRGILIO                                     MULTIPAGOSEE                  BN.COM.PE                     1SOLES          0000000000000000000000000006700000001MINISTERIO DE TRANSPORTES Y COMUNICACIONES                  ENTIDAD EXTERNA                                             PASARELA PAGO ENTIDAD EXTERNA                               1767271802177  00000296090    000000000000000000000  20260101075003202601010750030000000000000020260101075100VSA000995260019471327
2600000002860000000700070004202601010000000286        100000202601010757002026010801000000076371711ESCARCENA DIAZ  CESAR EDUARDO                               MULTIPAGOSEE                  BN.COM.PE                     1SOLES          0000000000000000000000000006700000001MINISTERIO DE TRANSPORTES Y COMUNICACIONES                  ENTIDAD EXTERNA                                             PASARELA PAGO ENTIDAD EXTERNA                               1767272176617  00000296090    000000000000000000000  20260101075618202601010756180000000000000020260101075700VSA000995260019472696
2600000003370000000700070004202601010000000337        100000202601010826502026010801000000070077512CABRERA AYUQUE  RICARDO DANIEL                              MULTIPAGOSEE                  BN.COM.PE                     1SOLES          0000000000000000000000000006700000001MINISTERIO DE TRANSPORTES Y COMUNICACIONES                  ENTIDAD EXTERNA                                             PASARELA PAGO ENTIDAD EXTERNA                               1767273917393  00000296090    000000000000000000000  20260101082519202601010825190000000000000020260101082650VSA000995260019480102
2600000003460000000700070004202601010000000346        100000202601010834442026010801000000041070207HUAPAYA AVALOS DANIEL ALCIDES                               MULTIPAGOSEE                  BN.COM.PE                     1SOLES          0000000000000000000000000006700000001MINISTERIO DE TRANSPORTES Y COMUNICACIONES                  ENTIDAD EXTERNA                                             PASARELA PAGO ENTIDAD EXTERNA                               1767274145917  00000296090    000000000000000000000  20260101082907202601010829070000000000000020260101083444VSA000995260019482196
2600000004070000000700070004202601010000000407        100000202601010853372026010806000020614998360ROSA MARIA ELIZABETH ANCO SOTOMAYOR                         MULTIPAGOSEE                  BN.COM.PE                     1SOLES          0000000000000000000000000010800000001MINISTERIO DE TRANSPORTES Y COMUNICACIONES                  ENTIDAD EXTERNA                                             PASARELA PAGO ENTIDAD EXTERNA                               1767275527071  00000296090    000000000000000000000  20260101085208202601010852080000000000000020260101085337VSA000995260019487301
2600000005260000000700070004202601010000000526        100000202601010940012026010801000000075444425PASTOR VIVES FIORELLA ALEXANDRA                             MULTIPAGOSEE                  BN.COM.PE                     1SOLES          0000000000000000000000000014700000001MINISTERIO DE TRANSPORTES Y COMUNICACIONES                  ENTIDAD EXTERNA                                             PASARELA PAGO ENTIDAD EXTERNA                               1767277950702  00000296090    000000000000000000000  20260101093232202601010932320000000000000020260101094001VSA000996260010551217
2600000005410000000700070004202601010000000541        100000202601010938172026010801000000047486403PALACIOS IZQUIERDO  NESTOR ARTURO                           MULTIPAGOSEE                  BN.COM.PE                     1SOLES          0000000000000000000000000006700000001MINISTERIO DE TRANSPORTES Y COMUNICACIONES                  ENTIDAD EXTERNA                                             PASARELA PAGO ENTIDAD EXTERNA                               1767278196853  00000296090    000000000000000000000  20260101093638202601010936380000000000000020260101093817VSA000995260019501812
2600000006030000000700070004202601010000000603        100000202601010957562026010801000000070654751OLORTIGA ROLDAN  CARLOS MANUEL                              MULTIPAGOSEE                  BN.COM.PE                     1SOLES          0000000000000000000000000006700000001MINISTERIO DE TRANSPORTES Y COMUNICACIONES                  ENTIDAD EXTERNA                                             PASARELA PAGO ENTIDAD EXTERNA                               1767279313779  00000296090    000000000000000000000  20260101095515202601010955150000000000000020260101095756VSA000995260019509419
2600000006260000000700070004202601010000000626        100000202601010959522026010801000000016125060AGUILAR CASIMIRO  SERGIO                                    MULTIPAGOSEE                  BN.COM.PE                     1SOLES          0000000000000000000000000014700000001MINISTERIO DE TRANSPORTES Y COMUNICACIONES                  ENTIDAD EXTERNA                                             PASARELA PAGO ENTIDAD EXTERNA                               1767279552990  00000296090    000000000000000000000  20260101095914202601010959140000000000000020260101095952VSA000996260010559604
2600000006440000000700070004202601010000000644        100000202601011009352026010801000000070077512CABRERA AYUQUE  RICARDO DANIEL                              MULTIPAGOSEE                  BN.COM.PE                     1SOLES          0000000000000000000000000006700000001MINISTERIO DE TRANSPORTES Y COMUNICACIONES                  ENTIDAD EXTERNA                                             PASARELA PAGO ENTIDAD EXTERNA                               1767279833552  00000296090    000000000000000000000  20260101100355202601011003550000000000000020260101100935VSA000995260019514162
2600000006560000000700070004202601010000000656        100000202601011009292026010801000000047169711RICALDE PALOMINO  WIMER                                     MULTIPAGOSEE                  BN.COM.PE                     1SOLES          0000000000000000000000000006700000001MINISTERIO DE TRANSPORTES Y COMUNICACIONES                  ENTIDAD EXTERNA                                             PASARELA PAGO ENTIDAD EXTERNA                               1767280067770  00000296090    000000000000000000000  20260101100749202601011007490000000000000020260101100929VSA000995260019514141
2600000007330000000700070004202601010000000733        100000202601011025512026010801000000010488953OVIEDO ACU A GINO CRISTHIAN                                 MULTIPAGOSEE                  BN.COM.PE                     1SOLES          0000000000000000000000000006700000001MINISTERIO DE TRANSPORTES Y COMUNICACIONES                  ENTIDAD EXTERNA                                             PASARELA PAGO ENTIDAD EXTERNA                               1767281118455  00000296090    000000000000000000000  20260101102520202601011025200000000000000020260101102551VSA000995260019520831
2600000007490000000700070004202601010000000749        100000202601011034092026010801000000010241725PEREZ PAREDES  JUAN FRANCISCO                               MULTIPAGOSEE                  BN.COM.PE                     1SOLES          0000000000000000000000000014700000001MINISTERIO DE TRANSPORTES Y COMUNICACIONES                  ENTIDAD EXTERNA                                             PASARELA PAGO ENTIDAD EXTERNA                               1767281284219  00000296090    000000000000000000000  20260101102805202601011028050000000000000020260101103409VSA000995260019524252
2600000009970000000700070004202601010000000997        100000202601011117282026010806000010400374410JAIME GUTIERREZ QUISPE                                      MULTIPAGOSEE                  BN.COM.PE                     1SOLES          0000000000000000000000000011300000001MINISTERIO DE TRANSPORTES Y COMUNICACIONES                  ENTIDAD EXTERNA                                             PASARELA PAGO ENTIDAD EXTERNA                               1767284125287  00000296090    000000000000000000000  20260101111527202601011115270000000000000020260101111728VSA000995260019545085
2600000011080000000700070004202601010000001108        100000202601011131362026010801000000072761960HERRERA ORTIZ  ARTURO ANDERSSON                             MULTIPAGOSEE                  BN.COM.PE                     1SOLES          0000000000000000000000000006700000001MINISTERIO DE TRANSPORTES Y COMUNICACIONES                  ENTIDAD EXTERNA                                             PASARELA PAGO ENTIDAD EXTERNA                               1767284940145  00000296090    000000000000000000000  20260101112901202601011129010000000000000020260101113136VSA000996260010607287
2600000011250000000700070004202601010000001125        100000202601011132262026010801000000018180083VELASQUEZ DELGADO  JOSE ROSALI                              MULTIPAGOSEE                  BN.COM.PE                     1SOLES          0000000000000000000000000006700000001MINISTERIO DE TRANSPORTES Y COMUNICACIONES                  ENTIDAD EXTERNA                                             PASARELA PAGO ENTIDAD EXTERNA                               1767285121787  00000296090    000000000000000000000  20260101113203202601011132030000000000000020260101113226VSA000996260010607841
2600000011480000000700070004202601010000001148        100000202601011136432026010801000000048147991GUEVARA GUTIERREZ JUAN FERNANDO                             MULTIPAGOSEE                  BN.COM.PE                     1SOLES          0000000000000000000000000006700000001MINISTERIO DE TRANSPORTES Y COMUNICACIONES                  ENTIDAD EXTERNA                                             PASARELA PAGO ENTIDAD EXTERNA                               1767285362214  00000296090    000000000000000000000  20260101113603202601011136030000000000000020260101113643VSA000995260019555923
2600000011500000000700070004202601010000001150        100000202601011138122026010801000000076733155HUANACO CARDENAS  CRISOSTOMO CIRO                           MULTIPAGOSEE                  BN.COM.PE                     1SOLES          0000000000000000000000000014700000001MINISTERIO DE TRANSPORTES Y COMUNICACIONES                  ENTIDAD EXTERNA                                             PASARELA PAGO ENTIDAD EXTERNA                               1767285390624  00000296090    000000000000000000000  20260101113632202601011136320000000000000020260101113812VSA000995260019556793
2600000011830000000700070004202601010000001183        100000202601011143292026010801000000046938017CHIPANA DAVALOS  JOSE LUIS                                  MULTIPAGOSEE                  BN.COM.PE                     1SOLES          0000000000000000000000000006700000001MINISTERIO DE TRANSPORTES Y COMUNICACIONES                  ENTIDAD EXTERNA                                             PASARELA PAGO ENTIDAD EXTERNA                               1767285711220  00000296090    000000000000000000000  20260101114152202601011141520000000000000020260101114329VSA000995260019559895
2600000011980000000700070004202601010000001198        100000202601011150352026010806000010402641334JESSICA SOLEDAD AYALA CARDENAS                              MULTIPAGOSEE                  BN.COM.PE                     1SOLES          0000000000000000000000000010800000001MINISTERIO DE TRANSPORTES Y COMUNICACIONES                  ENTIDAD EXTERNA                                             PASARELA PAGO ENTIDAD EXTERNA                               1767285816071  00000296090    000000000000000000000  20260101114337202601011143370000000000000020260101115035VSA000995260019564390
2600000012100000000700070004202601010000001210        100000202601011146472026010801000000040508674SILVA ALBINES  ETHIMSON RONALD                              MULTIPAGOSEE                  BN.COM.PE                     1SOLES          0000000000000000000000000014700000001MINISTERIO DE TRANSPORTES Y COMUNICACIONES                  ENTIDAD EXTERNA                                             PASARELA PAGO ENTIDAD EXTERNA                               1767285953754  00000296090    000000000000000000000  20260101114555202601011145550000000000000020260101114647VSA000995260019561883
2600000013070000000700070004202601010000001307        100000202601011204442026010801000000075557386CUSICHE GAVILAN  ROY                                        MULTIPAGOSEE                  BN.COM.PE                     1SOLES          0000000000000000000000000006700000001MINISTERIO DE TRANSPORTES Y COMUNICACIONES                  ENTIDAD EXTERNA                                             PASARELA PAGO ENTIDAD EXTERNA                               1767286996009  00000296090    000000000000000000000  20260101120317202601011203170000000000000020260101120444VSA000996260010630801
2600000014460000000700070004202601010000001446        100000202601011226562026010801000000030494677VELAZCO DIAZ  JOSE LUIS                                     MULTIPAGOSEE                  BN.COM.PE                     1SOLES          0000000000000000000000000006700000001MINISTERIO DE TRANSPORTES Y COMUNICACIONES                  ENTIDAD EXTERNA                                             PASARELA PAGO ENTIDAD EXTERNA                               1767288358846  00000296090    000000000000000000000  20260101122600202601011226000000000000000020260101122656VSA000995260019592499
2600000015740000000700070004202601010000001574        100000202601011248092026010801000000080147318OBANDO RUEDA  GUSTAVO ARMANDO                               MULTIPAGOSEE                  BN.COM.PE                     1SOLES          0000000000000000000000000006700000001MINISTERIO DE TRANSPORTES Y COMUNICACIONES                  ENTIDAD EXTERNA                                             PASARELA PAGO ENTIDAD EXTERNA                               1767289231409  00000296090    000000000000000000000  20260101124033202601011240330000000000000020260101124809VSA000996260010668259
2600000016180000000700070004202601010000001618        100000202601011253502026010801000000077488054MONTALVAN CARMONA  JHOEL JESUS                              MULTIPAGOSEE                  BN.COM.PE                     1SOLES          0000000000000000000000000014700000001MINISTERIO DE TRANSPORTES Y COMUNICACIONES                  ENTIDAD EXTERNA                                             PASARELA PAGO ENTIDAD EXTERNA                               1767289689912  00000296090    000000000000000000000  20260101124811202601011248110000000000000020260101125350VSA000996260010670981
2600000018450000000700070004202601010000001845        100000202601011320382026010801000000060760016GARCIA JUSTANO  JOSE ARMANDO                                MULTIPAGOSEE                  BN.COM.PE                     1SOLES          0000000000000000000000000014700000001MINISTERIO DE TRANSPORTES Y COMUNICACIONES                  ENTIDAD EXTERNA                                             PASARELA PAGO ENTIDAD EXTERNA                               1767291600527  00000296090    000000000000000000000  20260101132002202601011320020000000000000020260101132038VSA000996260010699186
2600000019470000000700070004202601010000001947        100000202601011337482026010801000000017900985LOPEZ SAAVEDRA  ANGEL ADRIANO                               MULTIPAGOSEE                  BN.COM.PE                     1SOLES          0000000000000000000000000006700000001MINISTERIO DE TRANSPORTES Y COMUNICACIONES                  ENTIDAD EXTERNA                                             PASARELA PAGO ENTIDAD EXTERNA                               1767292623191  00000296090    000000000000000000000  20260101133704202601011337040000000000000020260101133748VSA000996260010717469
2600000019970000000700070004202601010000001997        100000202601011345562026010801000000041998271TORRES MAUTINO FREDDY RONALD                                MULTIPAGOSEE                  BN.COM.PE                     1SOLES          0000000000000000000000000006700000001MINISTERIO DE TRANSPORTES Y COMUNICACIONES                  ENTIDAD EXTERNA                                             PASARELA PAGO ENTIDAD EXTERNA                               1767293048341  00000296090    000000000000000000000  20260101134410202601011344100000000000000020260101134556VSA000995260019657215
2600000021110000000700070004202601010000002111        100000202601011404072026010801000000043025275CONDORI TACO  RONALD FREDY                                  MULTIPAGOSEE                  BN.COM.PE                     1SOLES          0000000000000000000000000006700000001MINISTERIO DE TRANSPORTES Y COMUNICACIONES                  ENTIDAD EXTERNA                                             PASARELA PAGO ENTIDAD EXTERNA                               1767294138846  00000296090    000000000000000000000  20260101140220202601011402200000000000000020260101140407VSA000995260019674179
2600000021710000000700070004202601010000002171        100000202601011413122026010801000000008530339ROJAS VASQUEZ  MARINO                                       MULTIPAGOSEE                  BN.COM.PE                     1SOLES          0000000000000000000000000006700000001MINISTERIO DE TRANSPORTES Y COMUNICACIONES                  ENTIDAD EXTERNA                                             PASARELA PAGO ENTIDAD EXTERNA                               1767294696138  00000296090    000000000000000000000  20260101141137202601011411370000000000000020260101141312VSA000996260010757437
2600000021750000000700070004202601010000002175        100000202601011414162026010801000000072632523SOTO FERNANDEZ  JUNIOR ENRIQUE                              MULTIPAGOSEE                  BN.COM.PE                     1SOLES          0000000000000000000000000014700000001MINISTERIO DE TRANSPORTES Y COMUNICACIONES                  ENTIDAD EXTERNA                                             PASARELA PAGO ENTIDAD EXTERNA                               1767294709825  00000296090    000000000000000000000  20260101141151202601011411510000000000000020260101141416VSA000995260019683714
2600000022110000000700070004202601010000002211        100000202601011425042026010801000000046783612VILCAPUMA LLANCARI  JUNIOR HUSSEIN                          MULTIPAGOSEE                  BN.COM.PE                     1SOLES          0000000000000000000000000006700000001MINISTERIO DE TRANSPORTES Y COMUNICACIONES                  ENTIDAD EXTERNA                                             PASARELA PAGO ENTIDAD EXTERNA                               1767295209711  00000296090    000000000000000000000  20260101142011202601011420110000000000000020260101142504VSA000996260010771201
2600000022950000000700070004202601010000002295        100000202601011437272026010801000000073795629HUAPAYA VENTOSILLA  ANNA ROCIO                              MULTIPAGOSEE                  BN.COM.PE                     1SOLES          0000000000000000000000000014700000001MINISTERIO DE TRANSPORTES Y COMUNICACIONES                  ENTIDAD EXTERNA                                             PASARELA PAGO ENTIDAD EXTERNA                               1767296106333  00000296090    000000000000000000000  20260101143508202601011435080000000000000020260101143727VSA000996260010787988
2600000023060000000700070004202601010000002306        100000202601011437342026010801000000061002400BARRIOS GARABOA  YAGO                                       MULTIPAGOSEE                  BN.COM.PE                     1SOLES          0000000000000000000000000006700000001MINISTERIO DE TRANSPORTES Y COMUNICACIONES                  ENTIDAD EXTERNA                                             PASARELA PAGO ENTIDAD EXTERNA                               1767296218808  00000296090    000000000000000000000  20260101143700202601011437000000000000000020260101143734VSA000995260019708831
2600000023460000000700070004202601010000002346        100000202601011446562026010801000000072881382TAMAYO RUIZ  LILY NICOLLE                                   MULTIPAGOSEE                  BN.COM.PE                     1SOLES          0000000000000000000000000014700000001MINISTERIO DE TRANSPORTES Y COMUNICACIONES                  ENTIDAD EXTERNA                                             PASARELA PAGO ENTIDAD EXTERNA                               1767296729716  00000296090    000000000000000000000  20260101144531202601011445310000000000000020260101144656VSA000995260019718616
2600000024390000000700070004202601010000002439        100000202601011503542026010801000000047719572CHUNGA PRIETO KELLY MILAGROS                                MULTIPAGOSEE                  BN.COM.PE                     1SOLES          0000000000000000000000000014700000001MINISTERIO DE TRANSPORTES Y COMUNICACIONES                  ENTIDAD EXTERNA                                             PASARELA PAGO ENTIDAD EXTERNA                               1767297710619  00000296090    000000000000000000000  20260101150152202601011501520000000000000020260101150354VSA000996260010821337
2600000024830000000700070004202601010000002483        100000202601011512092026010801000000072207878ESPINOZA CHAVEZ  GUSTAVO ALBERTO                            MULTIPAGOSEE                  BN.COM.PE                     1SOLES          0000000000000000000000000006700000001MINISTERIO DE TRANSPORTES Y COMUNICACIONES                  ENTIDAD EXTERNA                                             PASARELA PAGO ENTIDAD EXTERNA                               1767298095479  00000296090    000000000000000000000  20260101150817202601011508170000000000000020260101151209VSA000995260019743886
2600000026980000000700070004202601010000002698        100000202601011538222026010806000020604873755REGNER DOLMON CARHUAS ROSALES                               MULTIPAGOSEE                  BN.COM.PE                     1SOLES          0000000000000000000000000011300000001MINISTERIO DE TRANSPORTES Y COMUNICACIONES                  ENTIDAD EXTERNA                                             PASARELA PAGO ENTIDAD EXTERNA                               1767299774296  00000296090    000000000000000000000  20260101153616202601011536160000000000000020260101153822VSA000995260019765523
2600000027300000000700070004202601010000002730        100000202601011543422026010801000000048761509PAZ QUI ONEZ  OMAR ALONSO                                   MULTIPAGOSEE                  BN.COM.PE                     1SOLES          0000000000000000000000000006700000001MINISTERIO DE TRANSPORTES Y COMUNICACIONES                  ENTIDAD EXTERNA                                             PASARELA PAGO ENTIDAD EXTERNA                               1767300131513  00000296090    000000000000000000000  20260101154213202601011542130000000000000020260101154342VSA000995260019770128
2600000028790000000700070004202601010000002879        100000202601011601592026010801000000071882638TRUJILLO ASENCIOS  IVAN RODOLFO                             MULTIPAGOSEE                  BN.COM.PE                     1SOLES          0000000000000000000000000006700000001MINISTERIO DE TRANSPORTES Y COMUNICACIONES                  ENTIDAD EXTERNA                                             PASARELA PAGO ENTIDAD EXTERNA                               1767301177739  00000296090    000000000000000000000  20260101155939202601011559390000000000000020260101160159VSA000995260019787451
2600000029380000000700070004202601010000002938        100000202601011616282026010801000000070275651FERNANDEZ QUILCA  WILFREDO                                  MULTIPAGOSEE                  BN.COM.PE                     1SOLES          0000000000000000000000000014700000001MINISTERIO DE TRANSPORTES Y COMUNICACIONES                  ENTIDAD EXTERNA                                             PASARELA PAGO ENTIDAD EXTERNA                               1767301718631  00000296090    000000000000000000000  20260101160840202601011608400000000000000020260101161628VSA000996260010908056
2600000030230000000700070004202601010000003023        100000202601011621152026010801000000007505723YARASCA GUANILO  SYLVIA ELENA                               MULTIPAGOSEE                  BN.COM.PE                     1SOLES          0000000000000000000000000006700000001MINISTERIO DE TRANSPORTES Y COMUNICACIONES                  ENTIDAD EXTERNA                                             PASARELA PAGO ENTIDAD EXTERNA                               1767302402257  00000296090    000000000000000000000  20260101162004202601011620040000000000000020260101162115VSA000996260010914015
2600000030330000000700070004202601010000003033        100000202601011622362026010801000000015721484FLORES MORA  EDDY JESUS                                     MULTIPAGOSEE                  BN.COM.PE                     1SOLES          0000000000000000000000000006700000001MINISTERIO DE TRANSPORTES Y COMUNICACIONES                  ENTIDAD EXTERNA                                             PASARELA PAGO ENTIDAD EXTERNA                               1767302500778  00000296090    000000000000000000000  20260101162142202601011621420000000000000020260101162236VSA000996260010915793
2600000031180000000700070004202601010000003118        100000202601011637032026010801000000041696612RUIZ HURTADO  JORGE LUIS                                    MULTIPAGOSEE                  BN.COM.PE                     1SOLES          0000000000000000000000000006700000001MINISTERIO DE TRANSPORTES Y COMUNICACIONES                  ENTIDAD EXTERNA                                             PASARELA PAGO ENTIDAD EXTERNA                               1767303323947  00000296090    000000000000000000000  20260101163525202601011635250000000000000020260101163703VSA000995260019822396
2600000031890000000700070004202601010000003189        100000202601011648102026010801000000060422956VEGA CASTIGLIONE  GONZALO SEBASTIAN                         MULTIPAGOSEE                  BN.COM.PE                     1SOLES          0000000000000000000000000014700000001MINISTERIO DE TRANSPORTES Y COMUNICACIONES                  ENTIDAD EXTERNA                                             PASARELA PAGO ENTIDAD EXTERNA                               1767303975771  00000296090    000000000000000000000  20260101164617202601011646170000000000000020260101164810VSA000995260019832879
2600000033010000000700070004202601010000003301        100000202601011706392026010801000000075280515QUISPE QUISPE  RICARDO                                      MULTIPAGOSEE                  BN.COM.PE                     1SOLES          0000000000000000000000000006700000001MINISTERIO DE TRANSPORTES Y COMUNICACIONES                  ENTIDAD EXTERNA                                             PASARELA PAGO ENTIDAD EXTERNA                               1767305113739  00000296090    000000000000000000000  20260101170515202601011705150000000000000020260101170639VSA000995260019849592
2600000033130000000700070004202601010000003313        100000202601011713492026010801000000071653572LAZO FLORES JHEFFERSON ELIAS                                MULTIPAGOSEE                  BN.COM.PE                     1SOLES          0000000000000000000000000006700000001MINISTERIO DE TRANSPORTES Y COMUNICACIONES                  ENTIDAD EXTERNA                                             PASARELA PAGO ENTIDAD EXTERNA                               1767305258915  00000296090    000000000000000000000  20260101170740202601011707400000000000000020260101171349VSA000995260019855562
2600000033230000000700070004202601010000003323        100000202601011711482026010801000000046115396VILCHEZ RAMOS  WALTER RENE                                  MULTIPAGOSEE                  BN.COM.PE                     1SOLES          0000000000000000000000000006700000001MINISTERIO DE TRANSPORTES Y COMUNICACIONES                  ENTIDAD EXTERNA                                             PASARELA PAGO ENTIDAD EXTERNA                               1767305362424  00000296090    000000000000000000000  20260101170924202601011709240000000000000020260101171148VSA000996260010975413
2600000035360000000700070004202601010000003536        100000202601011745582026010801000000076858752ROQUE SANCHEZ  JORFE HEISON                                 MULTIPAGOSEE                  BN.COM.PE                     1SOLES          0000000000000000000000000014700000001MINISTERIO DE TRANSPORTES Y COMUNICACIONES                  ENTIDAD EXTERNA                                             PASARELA PAGO ENTIDAD EXTERNA                               1767307479100  00000296090    000000000000000000000  20260101174440202601011744400000000000000020260101174558VSA000995260019881590
2600000035680000000700070004202601010000003568        100000202601011749382026010801000000006822085GUTIERREZ NOLASCO  VALENTIN                                 MULTIPAGOSEE                  BN.COM.PE                     1SOLES          0000000000000000000000000006700000001MINISTERIO DE TRANSPORTES Y COMUNICACIONES                  ENTIDAD EXTERNA                                             PASARELA PAGO ENTIDAD EXTERNA                               1767307700360  00000296090    000000000000000000000  20260101174822202601011748220000000000000020260101174938VSA000995260019884535
2600000036580000000700070004202601010000003658        100000202601011802452026010801000000075769963PEREZ ROJAS  JORGE LUIS                                     MULTIPAGOSEE                  BN.COM.PE                     1SOLES          0000000000000000000000000014700000001MINISTERIO DE TRANSPORTES Y COMUNICACIONES                  ENTIDAD EXTERNA                                             PASARELA PAGO ENTIDAD EXTERNA                               1767308485329  00000296090    000000000000000000000  20260101180127202601011801270000000000000020260101180245VSA000995260019895257
2600000037780000000700070004202601010000003778        100000202601011818102026010801000000009829468QUISPE HUAMANCUSI  GERMAN ALEXANDER                         MULTIPAGOSEE                  BN.COM.PE                     1SOLES          0000000000000000000000000006700000001MINISTERIO DE TRANSPORTES Y COMUNICACIONES                  ENTIDAD EXTERNA                                             PASARELA PAGO ENTIDAD EXTERNA                               1767309366589  00000296090    000000000000000000000  20260101181608202601011816080000000000000020260101181810VSA000995260019907615
2600000037970000000700070004202601010000003797        100000202601011819352026010801000000010462311GONZALES ARMAS  JOSE ALBERTO                                MULTIPAGOSEE                  BN.COM.PE                     1SOLES          0000000000000000000000000014700000001MINISTERIO DE TRANSPORTES Y COMUNICACIONES                  ENTIDAD EXTERNA                                             PASARELA PAGO ENTIDAD EXTERNA                               1767309507084  00000296090    000000000000000000000  20260101181828202601011818280000000000000020260101181935VSA000995260019908871
2600000038770000000700070004202601010000003877        100000202601011836332026010801000000042969827CARRE O GUERRERO DE TORRES TANIA ELSY                       MULTIPAGOSEE                  BN.COM.PE                     1SOLES          0000000000000000000000000006700000001MINISTERIO DE TRANSPORTES Y COMUNICACIONES                  ENTIDAD EXTERNA                                             PASARELA PAGO ENTIDAD EXTERNA                               1767310324028  00000296090    000000000000000000000  20260101183205202601011832050000000000000020260101183633VSA000995260019921971
2600000038960000000700070004202601010000003896        100000202601011837142026010801000000046142758CARCAMO CUCHULA  LUIS ABRAHAM                               MULTIPAGOSEE                  BN.COM.PE                     1SOLES          0000000000000000000000000006700000001MINISTERIO DE TRANSPORTES Y COMUNICACIONES                  ENTIDAD EXTERNA                                             PASARELA PAGO ENTIDAD EXTERNA                               1767310593275  00000296090    000000000000000000000  20260101183635202601011836350000000000000020260101183714VSA000995260019922489
2600000039050000000700070004202601010000003905        100000202601011838522026010801000000072397609MESAJIL LOPEZ  LUIS HERNAN                                  MULTIPAGOSEE                  BN.COM.PE                     1SOLES          0000000000000000000000000006700000001MINISTERIO DE TRANSPORTES Y COMUNICACIONES                  ENTIDAD EXTERNA                                             PASARELA PAGO ENTIDAD EXTERNA                               1767310657031  00000296090    000000000000000000000  20260101183738202601011837380000000000000020260101183852VSA000995260019923839
2600000040140000000700070004202601010000004014        100000202601011852452026010801000000043180928LIBIO PANDURO  FELIX ARMANDO ABELARDO                       MULTIPAGOSEE                  BN.COM.PE                     1SOLES          0000000000000000000000000006700000001MINISTERIO DE TRANSPORTES Y COMUNICACIONES                  ENTIDAD EXTERNA                                             PASARELA PAGO ENTIDAD EXTERNA                               1767311458590  00000296090    000000000000000000000  20260101185100202601011851000000000000000020260101185245VSA000995260019935207
2600000040390000000700070004202601010000004039        100000202601011857302026010801000000041033691SALAZAR RIOS  JOSE AUGUSTO                                  MULTIPAGOSEE                  BN.COM.PE                     1SOLES          0000000000000000000000000006700000001MINISTERIO DE TRANSPORTES Y COMUNICACIONES                  ENTIDAD EXTERNA                                             PASARELA PAGO ENTIDAD EXTERNA                               1767311748490  00000296090    000000000000000000000  20260101185550202601011855500000000000000020260101185730VSA000996260011090941
2600000040780000000700070004202601010000004078        100000202601011903392026010801000000077392970PARIASCA TADEO  DANIEL ANGEL                                MULTIPAGOSEE                  BN.COM.PE                     1SOLES          0000000000000000000000000014700000001MINISTERIO DE TRANSPORTES Y COMUNICACIONES                  ENTIDAD EXTERNA                                             PASARELA PAGO ENTIDAD EXTERNA                               1767312050635  00000296090    000000000000000000000  20260101190052202601011900520000000000000020260101190339VSA000996260011097519
2600000041090000000700070004202601010000004109        100000202601011908132026010801000000072081272GOMEZ ALVAREZ  CHRISTIANBERLI PATRICK                       MULTIPAGOSEE                  BN.COM.PE                     1SOLES          0000000000000000000000000006700000001MINISTERIO DE TRANSPORTES Y COMUNICACIONES                  ENTIDAD EXTERNA                                             PASARELA PAGO ENTIDAD EXTERNA                               1767312428212  00000296090    000000000000000000000  20260101190710202601011907100000000000000020260101190813VSA000995260019947983
2600000041570000000700070004202601010000004157        100000202601011919342026010801000000070810601PAREDES DELGADO RENZO GONZALO                               MULTIPAGOSEE                  BN.COM.PE                     1SOLES          0000000000000000000000000006700000001MINISTERIO DE TRANSPORTES Y COMUNICACIONES                  ENTIDAD EXTERNA                                             PASARELA PAGO ENTIDAD EXTERNA                               1767312958410  00000296090    000000000000000000000  20260101191600202601011916000000000000000020260101191934VSA000996260011115621
2600000041630000000700070004202601010000004163        100000202601011918042026010806000010414218704MERY COAQUIRA VALERO                                        MULTIPAGOSEE                  BN.COM.PE                     1SOLES          0000000000000000000000000010800000001MINISTERIO DE TRANSPORTES Y COMUNICACIONES                  ENTIDAD EXTERNA                                             PASARELA PAGO ENTIDAD EXTERNA                               1767313037341  00000296090    000000000000000000000  20260101191719202601011917190000000000000020260101191804VSA000996260011113922
2600000041690000000700070004202601010000004169        100000202601011918412026010801000000073223399VILCA LOPEZ VICTOR DOMENICO                                 MULTIPAGOSEE                  BN.COM.PE                     1SOLES          0000000000000000000000000006700000001MINISTERIO DE TRANSPORTES Y COMUNICACIONES                  ENTIDAD EXTERNA                                             PASARELA PAGO ENTIDAD EXTERNA                               1767313081922  00000296090    000000000000000000000  20260101191803202601011918030000000000000020260101191841VSA000996260011114567
2600000041970000000700070004202601010000004197        100000202601011923322026010801000000073962328OSORIO MEZA CECILIA                                         MULTIPAGOSEE                  BN.COM.PE                     1SOLES          0000000000000000000000000006700000001MINISTERIO DE TRANSPORTES Y COMUNICACIONES                  ENTIDAD EXTERNA                                             PASARELA PAGO ENTIDAD EXTERNA                               1767313356978  00000296090    000000000000000000000  20260101192238202601011922380000000000000020260101192332VSA000996260011120156
2600000045670000000700070004202601010000004567        100000202601012011462026010806000010199397732YONI MARIA GUTARRA CASTA EDA                                MULTIPAGOSEE                  BN.COM.PE                     1SOLES          0000000000000000000000000011300000001MINISTERIO DE TRANSPORTES Y COMUNICACIONES                  ENTIDAD EXTERNA                                             PASARELA PAGO ENTIDAD EXTERNA                               1767316279215  00000296090    000000000000000000000  20260101201121202601012011210000000000000020260101201146VSA000995260010000428
2600000047110000000700070004202601010000004711        100000202601012033102026010806000020614783177RICARDO ANTONIO NEYRA VIGO                                  MULTIPAGOSEE                  BN.COM.PE                     1SOLES          0000000000000000000000000011300000001MINISTERIO DE TRANSPORTES Y COMUNICACIONES                  ENTIDAD EXTERNA                                             PASARELA PAGO ENTIDAD EXTERNA                               1767317466065  00000296090    000000000000000000000  20260101203107202601012031070000000000000020260101203310VSA000995260010015848
2600000047470000000700070004202601010000004747        100000202601012037012026010801000000074236224SULCA ROJAS DEINA ZULY ANN                                  MULTIPAGOSEE                  BN.COM.PE                     1SOLES          0000000000000000000000000014700000001MINISTERIO DE TRANSPORTES Y COMUNICACIONES                  ENTIDAD EXTERNA                                             PASARELA PAGO ENTIDAD EXTERNA                               1767317690615  00000296090    000000000000000000000  20260101203452202601012034520000000000000020260101203701VSA000996260011200402
2600000047590000000700070004202601010000004759        100000202601012036582026010801000000073994026SERAS YAMUNAQUE JEAMPIER YEFRI                              MULTIPAGOSEE                  BN.COM.PE                     1SOLES          0000000000000000000000000014700000001MINISTERIO DE TRANSPORTES Y COMUNICACIONES                  ENTIDAD EXTERNA                                             PASARELA PAGO ENTIDAD EXTERNA                               1767317739052  00000296090    000000000000000000000  20260101203540202601012035400000000000000020260101203658VSA000995260010018544
2600000047940000000700070004202601010000004794        100000202601012040042026010801000000027285914BURGA MU OZ  LUIS                                           MULTIPAGOSEE                  BN.COM.PE                     1SOLES          0000000000000000000000000006700000001MINISTERIO DE TRANSPORTES Y COMUNICACIONES                  ENTIDAD EXTERNA                                             PASARELA PAGO ENTIDAD EXTERNA                               1767317933554  00000296090    000000000000000000000  20260101203855202601012038550000000000000020260101204004VSA000995260010020642
2600000048050000000700070004202601010000004805        100000202601012041452026010801000000060314526SUNQUILLPO HUAMAN  VIDAL                                    MULTIPAGOSEE                  BN.COM.PE                     1SOLES          0000000000000000000000000014700000001MINISTERIO DE TRANSPORTES Y COMUNICACIONES                  ENTIDAD EXTERNA                                             PASARELA PAGO ENTIDAD EXTERNA                               1767318007741  00000296090    000000000000000000000  20260101204009202601012040090000000000000020260101204145VSA000996260011205278
2600000048210000000700070004202601010000004821        100000202601012042512026010801000000040467722VEGA CALLE GABRIEL RICARDO                                  MULTIPAGOSEE                  BN.COM.PE                     1SOLES          0000000000000000000000000014700000001MINISTERIO DE TRANSPORTES Y COMUNICACIONES                  ENTIDAD EXTERNA                                             PASARELA PAGO ENTIDAD EXTERNA                               1767318089971  00000296090    000000000000000000000  20260101204131202601012041310000000000000020260101204251VSA000995260010022663
