2600000235240000000700070004202601020000023524        100000202601021258242026010906000020611120274WILDER LENNIN IRURETA MU OZ                                 MULTIPAGOSEE                  BN.COM.PE                     1SOLES          0000000000000000000000000010800000001MINISTERIO DE TRANSPORTES Y COMUNICACIONES                  ENTIDAD EXTERNA                                             PASARELA PAGO ENTIDAD EXTERNA                               1767376303553  00000296090    000000000000000000000  20260102125145202601021251450000000000000020260102125824AEX0000102175819966450
2600000268540000000700070004202601020000026854        100000202601021356572026010901000000046618806PURIS MACHACUAY  EDSON JENRRY                               MULTIPAGOSEE                  BN.COM.PE                     1SOLES          0000000000000000000000000006700000001MINISTERIO DE TRANSPORTES Y COMUNICACIONES                  ENTIDAD EXTERNA                                             PASARELA PAGO ENTIDAD EXTERNA                               1767380169467  00000296090    000000000000000000000  20260102135611202601021356110000000000000020260102135657AEX0000102185654990822
2600000268850000000700070004202601020000026885        100000202601021358382026010901000000047604457SAAVEDRA REATEGUI  DEYVI                                    MULTIPAGOSEE                  BN.COM.PE                     1SOLES          0000000000000000000000000006700000001MINISTERIO DE TRANSPORTES Y COMUNICACIONES                  ENTIDAD EXTERNA                                             PASARELA PAGO ENTIDAD EXTERNA                               1767380212092  00000296090    000000000000000000000  20260102135654202601021356540000000000000020260102135838AEX0000102185835991455
2600000287480000000700070004202601020000028748        100000202601021452102026010901000000044748185MALDONADO NIEVES  ALEXEI RENINGER                           MULTIPAGOSEE                  BN.COM.PE                     1SOLES          0000000000000000000000000006700000001MINISTERIO DE TRANSPORTES Y COMUNICACIONES                  ENTIDAD EXTERNA                                             PASARELA PAGO ENTIDAD EXTERNA                               1767382587721  00000296090    000000000000000000000  20260102143629202601021436290000000000000020260102145210AEX0000102195207714127
2600000303190000000700070004202601020000030319        100000202601021509222026010901000000070907559MACO LARA  IVETT MARIA                                      MULTIPAGOSEE                  BN.COM.PE                     1SOLES          0000000000000000000000000006700000001MINISTERIO DE TRANSPORTES Y COMUNICACIONES                  ENTIDAD EXTERNA                                             PASARELA PAGO ENTIDAD EXTERNA                               1767384504248  00000296090    000000000000000000000  20260102150826202601021508260000000000000020260102150922AEX0000102200915720768
2600000048370000000700070004202601010000004837        100000202601020928252026010801000000015423025SANCHEZ PALOMINO  SONIA GUADALUPE                           MULTIPAGOSEE                  BN.COM.PE                     1SOLES          0000000000000000000000000006700000001MINISTERIO DE TRANSPORTES Y COMUNICACIONES                  ENTIDAD EXTERNA                                             PASARELA PAGO ENTIDAD EXTERNA                               1767318170305  00000296090    000000000000000097693  20260101204252202601012042522026010209282520260102092825CCO001
2600000065520000000700070004202601020000006552        100000202601021430152026010901000000073006637ESTRADA DOMADOR CARLOS RAFAEL                               MULTIPAGOSEE                  BN.COM.PE                     1SOLES          0000000000000000000000000006700000001MINISTERIO DE TRANSPORTES Y COMUNICACIONES                  ENTIDAD EXTERNA                                             PASARELA PAGO ENTIDAD EXTERNA                               1767353534640  00000296090    000000000000000097692  20260102063216202601020632162026010214301520260102143015CCO001
2600000074370000000700070004202601020000007437        100000202601020801502026010901000000076875373VARGAS CHACON  DAVID RONNY                                  MULTIPAGOSEE                  BN.COM.PE                     1SOLES          0000000000000000000000000014700000001MINISTERIO DE TRANSPORTES Y COMUNICACIONES                  ENTIDAD EXTERNA                                             PASARELA PAGO ENTIDAD EXTERNA                               1767358815147  00000296090    000000000000000097693  20260102080017202601020800172026010208015020260102080150CCO001
2600000080550000000700070004202601020000008055        100000202601020830232026010901000000007445751CASTROMONTE ALDAVE  QUINTIN                                 MULTIPAGOSEE                  BN.COM.PE                     1SOLES          0000000000000000000000000006700000001MINISTERIO DE TRANSPORTES Y COMUNICACIONES                  ENTIDAD EXTERNA                                             PASARELA PAGO ENTIDAD EXTERNA                               1767360573742  00000296090    000000000000000097692  20260102082935202601020829352026010208302320260102083023CCO001
2600000081480000000700070004202601020000008148        100000202601020833512026010901000000006804332GUERRA BAZAN  JORGE FERNANDO                                MULTIPAGOSEE                  BN.COM.PE                     1SOLES          0000000000000000000000000014700000001MINISTERIO DE TRANSPORTES Y COMUNICACIONES                  ENTIDAD EXTERNA                                             PASARELA PAGO ENTIDAD EXTERNA                               1767360792843  00000296090    000000000000000097693  20260102083314202601020833142026010208335120260102083351CCO001
2600000093730000000700070004202601020000009373        100000202601020909262026010901000000048089403LAPA HUAMAN DANIEL                                          MULTIPAGOSEE                  BN.COM.PE                     1SOLES          0000000000000000000000000006700000001MINISTERIO DE TRANSPORTES Y COMUNICACIONES                  ENTIDAD EXTERNA                                             PASARELA PAGO ENTIDAD EXTERNA                               1767362786149  00000296090    000000000000000097693  20260102090628202601020906282026010209092620260102090926CCO001
2600000106890000000700070004202601020000010689        100000202601021004592026010901000000045708022ESPINOZA BARBOZA  FIDEL                                     MULTIPAGOSEE                  BN.COM.PE                     1SOLES          0000000000000000000000000006700000001MINISTERIO DE TRANSPORTES Y COMUNICACIONES                  ENTIDAD EXTERNA                                             PASARELA PAGO ENTIDAD EXTERNA                               1767364414772  00000296090    000000000000000097692  20260102093336202601020933362026010210045920260102100459CCO001
2600000168590000000700070004202601020000016859        100000202601021113452026010901000000074989845ALVARADO SANCHEZ MISAEL ALFONSO                             MULTIPAGOSEE                  BN.COM.PE                     1SOLES          0000000000000000000000000014700000001MINISTERIO DE TRANSPORTES Y COMUNICACIONES                  ENTIDAD EXTERNA                                             PASARELA PAGO ENTIDAD EXTERNA                               1767370283314  00000296090    000000000000000097693  20260102111125202601021111252026010211134520260102111345CCO001
2600000169390000000700070004202601020000016939        100000202601021119392026010901000000074990648TUPIA LOZANO  CRISTHIAN EBER                                MULTIPAGOSEE                  BN.COM.PE                     1SOLES          0000000000000000000000000006700000001MINISTERIO DE TRANSPORTES Y COMUNICACIONES                  ENTIDAD EXTERNA                                             PASARELA PAGO ENTIDAD EXTERNA                               1767370345031  00000296090    000000000000000097693  20260102111227202601021112272026010211193920260102111939CCO001
2600000190050000000700070004202601020000019005        100000202601021224112026010901000000072387291OROPEZA YAPO  GONZALO VALENTIN                              MULTIPAGOSEE                  BN.COM.PE                     1SOLES          0000000000000000000000000014700000001MINISTERIO DE TRANSPORTES Y COMUNICACIONES                  ENTIDAD EXTERNA                                             PASARELA PAGO ENTIDAD EXTERNA                               1767372145940  00000296090    000000000000000097693  20260102114228202601021142282026010212241120260102122411CCO001
2600000197780000000700070004202601020000019778        100000202601021214402026010901000000045830267MOGROVEJO ESPINOZA  KEIN ALVARO                             MULTIPAGOSEE                  BN.COM.PE                     1SOLES          0000000000000000000000000006700000001MINISTERIO DE TRANSPORTES Y COMUNICACIONES                  ENTIDAD EXTERNA                                             PASARELA PAGO ENTIDAD EXTERNA                               1767372850845  00000296090    000000000000000097693  20260102115412202601021154122026010212144020260102121440CCO001
2600000228220000000700070004202601020000022822        100000202601021312302026010901000000007121408VASQUEZ CHAVEZ  SACARIAS ALBERTO                            MULTIPAGOSEE                  BN.COM.PE                     1SOLES          0000000000000000000000000006700000001MINISTERIO DE TRANSPORTES Y COMUNICACIONES                  ENTIDAD EXTERNA                                             PASARELA PAGO ENTIDAD EXTERNA                               1767375575660  00000296090    000000000000000097693  20260102123937202601021239372026010213123020260102131230CCO001
2600000235330000000700070004202601020000023533        100000202601021257422026010901000000040456547MEDINA ARELLANO  HUBER FREDDY                               MULTIPAGOSEE                  BN.COM.PE                     1SOLES          0000000000000000000000000006700000001MINISTERIO DE TRANSPORTES Y COMUNICACIONES                  ENTIDAD EXTERNA                                             PASARELA PAGO ENTIDAD EXTERNA                               1767376319101  00000296090    000000000000000097692  20260102125201202601021252012026010212574220260102125742CCO001
2600000241280000000700070004202601020000024128        100000202601021303492026010901000000025806569FLORES COLQUE ROLANDO ROSSI                                 MULTIPAGOSEE                  BN.COM.PE                     1SOLES          0000000000000000000000000014700000001MINISTERIO DE TRANSPORTES Y COMUNICACIONES                  ENTIDAD EXTERNA                                             PASARELA PAGO ENTIDAD EXTERNA                               1767376932889  00000296090    000000000000000097693  20260102130215202601021302152026010213034920260102130349CCO001
2600000270900000000700070004202601020000027090        100000202601021401312026010901000000040253226MENDOZA BRAVO ENRIQUE                                       MULTIPAGOSEE                  BN.COM.PE                     1SOLES          0000000000000000000000000006700000001MINISTERIO DE TRANSPORTES Y COMUNICACIONES                  ENTIDAD EXTERNA                                             PASARELA PAGO ENTIDAD EXTERNA                               1767380466696  00000296090    000000000000000097693  20260102140108202601021401082026010214013120260102140131CCO001
2600000277230000000700070004202601020000027723        100000202601021415252026010901000000006715480CHIPANA ORTIZ  IGNACIO                                      MULTIPAGOSEE                  BN.COM.PE                     1SOLES          0000000000000000000000000014700000001MINISTERIO DE TRANSPORTES Y COMUNICACIONES                  ENTIDAD EXTERNA                                             PASARELA PAGO ENTIDAD EXTERNA                               1767381299450  00000296090    000000000000000097692  20260102141501202601021415012026010214152520260102141525CCO001
2600000283040000000700070004202601020000028304        100000202601021428052026010901000000041693588CARDENAS PARI HENRRY                                        MULTIPAGOSEE                  BN.COM.PE                     1SOLES          0000000000000000000000000006700000001MINISTERIO DE TRANSPORTES Y COMUNICACIONES                  ENTIDAD EXTERNA                                             PASARELA PAGO ENTIDAD EXTERNA                               1767382037201  00000296090    000000000000000097692  20260102142719202601021427192026010214280520260102142805CCO001
2600000284510000000700070004202601020000028451        100000202601021431162026010901000000006207266BERNIA GALARZA  ROBERTO EDUARDO                             MULTIPAGOSEE                  BN.COM.PE                     1SOLES          0000000000000000000000000006700000001MINISTERIO DE TRANSPORTES Y COMUNICACIONES                  ENTIDAD EXTERNA                                             PASARELA PAGO ENTIDAD EXTERNA                               1767382228957  00000296090    000000000000000097693  20260102143031202601021430312026010214311620260102143116CCO001
2600000300140000000700070004202601020000030014        100000202601021502222026010901000000040318250CARDENAS RAMIREZ  FREDY ARTURO                              MULTIPAGOSEE                  BN.COM.PE                     1SOLES          0000000000000000000000000014700000001MINISTERIO DE TRANSPORTES Y COMUNICACIONES                  ENTIDAD EXTERNA                                             PASARELA PAGO ENTIDAD EXTERNA                               1767384110647  00000296090    000000000000000097692  20260102150152202601021501522026010215022220260102150222CCO001
2600000316860000000700070004202601020000031686        100000202601021537322026010901000000042217363RAMOS PAREJA  LUIS ALBERTO                                  MULTIPAGOSEE                  BN.COM.PE                     1SOLES          0000000000000000000000000006700000001MINISTERIO DE TRANSPORTES Y COMUNICACIONES                  ENTIDAD EXTERNA                                             PASARELA PAGO ENTIDAD EXTERNA                               1767386204725  00000296090    000000000000000097692  20260102153646202601021536462026010215373220260102153732CCO001
2600000319890000000700070004202601020000031989        100000202601021552382026010901000000075475073HUARANCCA LLOCCLLA  JESUS GUILLERMO                         MULTIPAGOSEE                  BN.COM.PE                     1SOLES          0000000000000000000000000006700000001MINISTERIO DE TRANSPORTES Y COMUNICACIONES                  ENTIDAD EXTERNA                                             PASARELA PAGO ENTIDAD EXTERNA                               1767386534019  00000296090    000000000000000097692  20260102154216202601021542162026010215523820260102155238CCO001
2600000333470000000700070004202601020000033347        100000202601021608542026010901000000009070388NEGRON SANCHEZ  SAID DANIEL                                 MULTIPAGOSEE                  BN.COM.PE                     1SOLES          0000000000000000000000000014700000001MINISTERIO DE TRANSPORTES Y COMUNICACIONES                  ENTIDAD EXTERNA                                             PASARELA PAGO ENTIDAD EXTERNA                               1767388094864  00000296090    000000000000000097693  20260102160817202601021608172026010216085420260102160854CCO001
2600000339870000000700070004202601020000033987        100000202601021620592026010901000000072134705CENTURION BECERRA  ARNALDO AMADO                            MULTIPAGOSEE                  BN.COM.PE                     1SOLES          0000000000000000000000000014700000001MINISTERIO DE TRANSPORTES Y COMUNICACIONES                  ENTIDAD EXTERNA                                             PASARELA PAGO ENTIDAD EXTERNA                               1767388826574  00000296090    000000000000000097692  20260102162028202601021620282026010216205920260102162059CCO001
2600000343560000000700070004202601020000034356        100000202601021628262026010901000000071870826APAZA COAQUIRA CLEVER                                       MULTIPAGOSEE                  BN.COM.PE                     1SOLES          0000000000000000000000000006700000001MINISTERIO DE TRANSPORTES Y COMUNICACIONES                  ENTIDAD EXTERNA                                             PASARELA PAGO ENTIDAD EXTERNA                               1767389273599  00000296090    000000000000000097692  20260102162755202601021627552026010216282620260102162826CCO001
2600000357960000000700070004202601020000035796        100000202601021657472026010901000000008105028ARTEAGA CORDOVA  MANUEL ESTEBAN                             MULTIPAGOSEE                  BN.COM.PE                     1SOLES          0000000000000000000000000014700000001MINISTERIO DE TRANSPORTES Y COMUNICACIONES                  ENTIDAD EXTERNA                                             PASARELA PAGO ENTIDAD EXTERNA                               1767391034927  00000296090    000000000000000097693  20260102165717202601021657172026010216574720260102165747CCO001
2600000360630000000700070004202601020000036063        100000202601021703412026010901000000047980934BRAVO ESPINOZA  DANY ROMEL                                  MULTIPAGOSEE                  BN.COM.PE                     1SOLES          0000000000000000000000000006700000001MINISTERIO DE TRANSPORTES Y COMUNICACIONES                  ENTIDAD EXTERNA                                             PASARELA PAGO ENTIDAD EXTERNA                               1767391394108  00000296090    000000000000000097693  20260102170316202601021703162026010217034120260102170341CCO001
2600000061310000000700070004202601020000006131        100000202601020047382026010901000000041256520MILUSSICH MORALES  VERUSKA DEL CARMEN                       MULTIPAGOSEE                  BN.COM.PE                     1SOLES          0000000000000000000000000006700000001MINISTERIO DE TRANSPORTES Y COMUNICACIONES                  ENTIDAD EXTERNA                                             PASARELA PAGO ENTIDAD EXTERNA                               1767332726288  00000296090    000000000000000000000  20260102004528202601020045280000000000000020260102004738MCP0000102054727785351
2600000189540000000700070004202601020000018954        100000202601021142412026010901000000070277505VILLALOBOS CAMPOS MAICOL JORDAN                             MULTIPAGOSEE                  BN.COM.PE                     1SOLES          0000000000000000000000000006700000001MINISTERIO DE TRANSPORTES Y COMUNICACIONES                  ENTIDAD EXTERNA                                             PASARELA PAGO ENTIDAD EXTERNA                               1767372107299  00000296090    000000000000000000000  20260102114149202601021141490000000000000020260102114241MCP0000102164234934712
2600000214600000000700070004202601020000021460        100000202601021220512026010901000000047007538BLANCO PASACHE  GLORIA ISABEL                               MULTIPAGOSEE                  BN.COM.PE                     1SOLES          0000000000000000000000000014700000001MINISTERIO DE TRANSPORTES Y COMUNICACIONES                  ENTIDAD EXTERNA                                             PASARELA PAGO ENTIDAD EXTERNA                               1767374282627  00000296090    000000000000000000000  20260102121804202601021218040000000000000020260102122051MCP0000102172043950198
2600000283570000000700070004202601020000028357        100000202601021430542026010901000000010265473SANTIAGO ESPINOZA  ROBERTH                                  MULTIPAGOSEE                  BN.COM.PE                     1SOLES          0000000000000000000000000014700000001MINISTERIO DE TRANSPORTES Y COMUNICACIONES                  ENTIDAD EXTERNA                                             PASARELA PAGO ENTIDAD EXTERNA                               1767382108896  00000296090    000000000000000000000  20260102142831202601021428310000000000000020260102143054MCP0000102193046705225
2600000364000000000700070004202601020000036400        100000202601021717052026010901000000042158676BEJAR FLORES EDSON ANDREI                                   MULTIPAGOSEE                  BN.COM.PE                     1SOLES          0000000000000000000000000006700000001MINISTERIO DE TRANSPORTES Y COMUNICACIONES                  ENTIDAD EXTERNA                                             PASARELA PAGO ENTIDAD EXTERNA                               1767391870500  00000296090    000000000000000000000  20260102171112202601021711120000000000000020260102171705MCP0000102221659773255
2600000407070000000700070004202601020000040707        100000202601021916592026010901000000077680050VALVERDE CASTILLO  BRUNO ARMANDO                            MULTIPAGOSEE                  BN.COM.PE                     1SOLES          0000000000000000000000000014700000001MINISTERIO DE TRANSPORTES Y COMUNICACIONES                  ENTIDAD EXTERNA                                             PASARELA PAGO ENTIDAD EXTERNA                               1767399345968  00000296090    000000000000000000000  20260102191548202601021915480000000000000020260102191659MCP0000103001654825637
2600000426950000000700070004202601020000042695        100000202601022054382026010901000000045071560TONGO CALERO  JYMMI DANIEL                                  MULTIPAGOSEE                  BN.COM.PE                     1SOLES          0000000000000000000000000014700000001MINISTERIO DE TRANSPORTES Y COMUNICACIONES                  ENTIDAD EXTERNA                                             PASARELA PAGO ENTIDAD EXTERNA                               1767405209079  00000296090    000000000000000000000  20260102205331202601022053310000000000000020260102205438MCP0000103015432867570
2600000062640000000700070004202601020000006264        100000202601020211442026010901000000072888474TABRAJ RAMIREZ JHEFERSON FERNANDO                           MULTIPAGOSEE                  BN.COM.PE                     1SOLES          0000000000000000000000000006700000001MINISTERIO DE TRANSPORTES Y COMUNICACIONES                  ENTIDAD EXTERNA                                             PASARELA PAGO ENTIDAD EXTERNA                               1767337862960  00000296090    000000000000000000000  20260102021104202601020211040000000000000020260102021144VSA000995260020164154
2600000063300000000700070004202601020000006330        100000202601020409402026010901000000047583580CARRASCO VICTORIA  FERNANDO ANDRE                           MULTIPAGOSEE                  BN.COM.PE                     1SOLES          0000000000000000000000000006700000001MINISTERIO DE TRANSPORTES Y COMUNICACIONES                  ENTIDAD EXTERNA                                             PASARELA PAGO ENTIDAD EXTERNA                               1767344775708  00000296090    000000000000000000000  20260102040617202601020406170000000000000020260102040940VSA000995260020195438
2600000063360000000700070004202601020000006336        100000202601020414412026010901000000047583580CARRASCO VICTORIA  FERNANDO ANDRE                           MULTIPAGOSEE                  BN.COM.PE                     1SOLES          0000000000000000000000000014700000001MINISTERIO DE TRANSPORTES Y COMUNICACIONES                  ENTIDAD EXTERNA                                             PASARELA PAGO ENTIDAD EXTERNA                               1767345216398  00000296090    000000000000000000000  20260102041338202601020413380000000000000020260102041441VSA000995260020196414
2600000063950000000700070004202601020000006395        100000202601020537452026010901000000070579350GARCIA MARCOS  HECTOR ALBERTO                               MULTIPAGOSEE                  BN.COM.PE                     1SOLES          0000000000000000000000000014700000001MINISTERIO DE TRANSPORTES Y COMUNICACIONES                  ENTIDAD EXTERNA                                             PASARELA PAGO ENTIDAD EXTERNA                               1767350205309  00000296090    000000000000000000000  20260102053647202601020536470000000000000020260102053745VSA000996260021478136
2600000066370000000700070004202601020000006637        100000202601020648442026010901000000044460655AGUILAR CA ARI  HUBER MIRKO                                 MULTIPAGOSEE                  BN.COM.PE                     1SOLES          0000000000000000000000000014700000001MINISTERIO DE TRANSPORTES Y COMUNICACIONES                  ENTIDAD EXTERNA                                             PASARELA PAGO ENTIDAD EXTERNA                               1767354301987  00000296090    000000000000000000000  20260102064504202601020645040000000000000020260102064844VSA000995260020230289
2600000070110000000700070004202601020000007011        100000202601020731352026010901000000007989058MATOS Y ROJAS  JULIO JACINTO                                MULTIPAGOSEE                  BN.COM.PE                     1SOLES          0000000000000000000000000014700000001MINISTERIO DE TRANSPORTES Y COMUNICACIONES                  ENTIDAD EXTERNA                                             PASARELA PAGO ENTIDAD EXTERNA                               1767357072912  00000296090    000000000000000000000  20260102073114202601020731140000000000000020260102073135VSA000995260020241236
2600000072160000000700070004202601020000007216        100000202601020749272026010901000000042641459OCHOA ANCCASI DANIEL ALBERTO                                MULTIPAGOSEE                  BN.COM.PE                     1SOLES          0000000000000000000000000006700000001MINISTERIO DE TRANSPORTES Y COMUNICACIONES                  ENTIDAD EXTERNA                                             PASARELA PAGO ENTIDAD EXTERNA                               1767358054170  00000296090    000000000000000000000  20260102074736202601020747360000000000000020260102074927VSA000995260020246703
2600000072630000000700070004202601020000007263        100000202601020751092026010901000000046628595AGUILAR COTERA  ELMER ULISES                                MULTIPAGOSEE                  BN.COM.PE                     1SOLES          0000000000000000000000000014700000001MINISTERIO DE TRANSPORTES Y COMUNICACIONES                  ENTIDAD EXTERNA                                             PASARELA PAGO ENTIDAD EXTERNA                               1767358225317  00000296090    000000000000000000000  20260102075027202601020750270000000000000020260102075109VSA000995260020247228
2600000072990000000700070004202601020000007299        100000202601020753212026010901000000080223122DEL MAR HUAPAYA  JORGE ALBERTO                              MULTIPAGOSEE                  BN.COM.PE                     1SOLES          0000000000000000000000000006700000001MINISTERIO DE TRANSPORTES Y COMUNICACIONES                  ENTIDAD EXTERNA                                             PASARELA PAGO ENTIDAD EXTERNA                               1767358342968  00000296090    000000000000000000000  20260102075225202601020752250000000000000020260102075321VSA000996260021558022
2600000073160000000700070004202601020000007316        100000202601020800122026010901000000072974993QUISPE JAUREGUI  LUIS ENRIQUE                               MULTIPAGOSEE                  BN.COM.PE                     1SOLES          0000000000000000000000000014700000001MINISTERIO DE TRANSPORTES Y COMUNICACIONES                  ENTIDAD EXTERNA                                             PASARELA PAGO ENTIDAD EXTERNA                               1767358407363  00000296090    000000000000000000000  20260102075329202601020753290000000000000020260102080012VSA000996260021561654
2600000074420000000700070004202601020000007442        100000202601020801112026010901000000010478347QUISPE HUILLCA  MARIO                                       MULTIPAGOSEE                  BN.COM.PE                     1SOLES          0000000000000000000000000014700000001MINISTERIO DE TRANSPORTES Y COMUNICACIONES                  ENTIDAD EXTERNA                                             PASARELA PAGO ENTIDAD EXTERNA                               1767358826277  00000296090    000000000000000000000  20260102080028202601020800280000000000000020260102080111VSA000995260020250918
2600000074570000000700070004202601020000007457        100000202601020801542026010901000000015751551ROSAS CASCA SANDRO ALBINO                                   MULTIPAGOSEE                  BN.COM.PE                     1SOLES          0000000000000000000000000006700000001MINISTERIO DE TRANSPORTES Y COMUNICACIONES                  ENTIDAD EXTERNA                                             PASARELA PAGO ENTIDAD EXTERNA                               1767358857333  00000296090    000000000000000000000  20260102080059202601020800590000000000000020260102080154VSA000995260020251225
2600000075270000000700070004202601020000007527        100000202601020809012026010901000000042358342OVIEDO SURCO  MILTON MARIO                                  MULTIPAGOSEE                  BN.COM.PE                     1SOLES          0000000000000000000000000014700000001MINISTERIO DE TRANSPORTES Y COMUNICACIONES                  ENTIDAD EXTERNA                                             PASARELA PAGO ENTIDAD EXTERNA                               1767359181110  00000296090    000000000000000000000  20260102080623202601020806230000000000000020260102080901VSA000996260021566795
2600000075830000000700070004202601020000007583        100000202601020809562026010901000000015397160CANDELA GUTIERREZ  LUIS ANTONIO                             MULTIPAGOSEE                  BN.COM.PE                     1SOLES          0000000000000000000000000014700000001MINISTERIO DE TRANSPORTES Y COMUNICACIONES                  ENTIDAD EXTERNA                                             PASARELA PAGO ENTIDAD EXTERNA                               1767359347431  00000296090    000000000000000000000  20260102080909202601020809090000000000000020260102080956VSA000995260020254527
2600000076520000000700070004202601020000007652        100000202601020813542026010901000000024706284SULLCA QUISPE  ALBERT                                       MULTIPAGOSEE                  BN.COM.PE                     1SOLES          0000000000000000000000000006700000001MINISTERIO DE TRANSPORTES Y COMUNICACIONES                  ENTIDAD EXTERNA                                             PASARELA PAGO ENTIDAD EXTERNA                               1767359591205  00000296090    000000000000000000000  20260102081313202601020813130000000000000020260102081354VSA000995260020256210
2600000076920000000700070004202601020000007692        100000202601020815432026010901000000074430123TAPIA NAVENTA  TEDDYN STALIN                                MULTIPAGOSEE                  BN.COM.PE                     1SOLES          0000000000000000000000000014700000001MINISTERIO DE TRANSPORTES Y COMUNICACIONES                  ENTIDAD EXTERNA                                             PASARELA PAGO ENTIDAD EXTERNA                               1767359704508  00000296090    000000000000000000000  20260102081506202601020815060000000000000020260102081543VSA000996260021571031
2600000077030000000700070004202601020000007703        100000202601020817062026010901000000071886400RIVAS LARA  GIANFRANCO MICHAELLI                            MULTIPAGOSEE                  BN.COM.PE                     1SOLES          0000000000000000000000000006700000001MINISTERIO DE TRANSPORTES Y COMUNICACIONES                  ENTIDAD EXTERNA                                             PASARELA PAGO ENTIDAD EXTERNA                               1767359738054  00000296090    000000000000000000000  20260102081540202601020815400000000000000020260102081706VSA000996260021571946
2600000077180000000700070004202601020000007718        100000202601020819442026010901000000076512975GARCIA MAIZ WILMER LIZANDRO                                 MULTIPAGOSEE                  BN.COM.PE                     1SOLES          0000000000000000000000000006700000001MINISTERIO DE TRANSPORTES Y COMUNICACIONES                  ENTIDAD EXTERNA                                             PASARELA PAGO ENTIDAD EXTERNA                               1767359772315  00000296090    000000000000000000000  20260102081614202601020816140000000000000020260102081944VSA000996260021573686
2600000077310000000700070004202601020000007731        100000202601020817352026010901000000044146561MAMANI QUISPE  WILBERT                                      MULTIPAGOSEE                  BN.COM.PE                     1SOLES          0000000000000000000000000006700000001MINISTERIO DE TRANSPORTES Y COMUNICACIONES                  ENTIDAD EXTERNA                                             PASARELA PAGO ENTIDAD EXTERNA                               1767359806464  00000296090    000000000000000000000  20260102081648202601020816480000000000000020260102081735VSA000995260020257810
2600000077650000000700070004202601020000007765        100000202601020819212026010901000000043353378NEVES CARRILLO  AGUSTIN                                     MULTIPAGOSEE                  BN.COM.PE                     1SOLES          0000000000000000000000000006700000001MINISTERIO DE TRANSPORTES Y COMUNICACIONES                  ENTIDAD EXTERNA                                             PASARELA PAGO ENTIDAD EXTERNA                               1767359903196  00000296090    000000000000000000000  20260102081825202601020818250000000000000020260102081921VSA000995260020258578
2600000078120000000700070004202601020000007812        100000202601020820292026010901000000043353378NEVES CARRILLO  AGUSTIN                                     MULTIPAGOSEE                  BN.COM.PE                     1SOLES          0000000000000000000000000014700000001MINISTERIO DE TRANSPORTES Y COMUNICACIONES                  ENTIDAD EXTERNA                                             PASARELA PAGO ENTIDAD EXTERNA                               1767359989422  00000296090    000000000000000000000  20260102081951202601020819510000000000000020260102082029VSA000995260020259135
2600000078170000000700070004202601020000007817        100000202601020821002026010901000000015966172ALEJANDRO PIQUE  JOSE                                       MULTIPAGOSEE                  BN.COM.PE                     1SOLES          0000000000000000000000000014700000001MINISTERIO DE TRANSPORTES Y COMUNICACIONES                  ENTIDAD EXTERNA                                             PASARELA PAGO ENTIDAD EXTERNA                               1767360010468  00000296090    000000000000000000000  20260102082012202601020820120000000000000020260102082100VSA000995260020259425
2600000078470000000700070004202601020000007847        100000202601020822022026010901000000009011989EGOAVIL CHAVEZ  JOSE                                        MULTIPAGOSEE                  BN.COM.PE                     1SOLES          0000000000000000000000000014700000001MINISTERIO DE TRANSPORTES Y COMUNICACIONES                  ENTIDAD EXTERNA                                             PASARELA PAGO ENTIDAD EXTERNA                               1767360080110  00000296090    000000000000000000000  20260102082122202601020821220000000000000020260102082202VSA000996260021575414
2600000078730000000700070004202601020000007873        100000202601020823062026010901000000010006418COZ ALTAMIZA  CESAR MARTIN                                  MULTIPAGOSEE                  BN.COM.PE                     1SOLES          0000000000000000000000000014700000001MINISTERIO DE TRANSPORTES Y COMUNICACIONES                  ENTIDAD EXTERNA                                             PASARELA PAGO ENTIDAD EXTERNA                               1767360144865  00000296090    000000000000000000000  20260102082226202601020822260000000000000020260102082306VSA000996260021576205
2600000078840000000700070004202601020000007884        100000202601020824042026010901000000070117297CHIQUILLAN CCE UA  SIMON PEDRO                              MULTIPAGOSEE                  BN.COM.PE                     1SOLES          0000000000000000000000000014700000001MINISTERIO DE TRANSPORTES Y COMUNICACIONES                  ENTIDAD EXTERNA                                             PASARELA PAGO ENTIDAD EXTERNA                               1767360166785  00000296090    000000000000000000000  20260102082248202601020822480000000000000020260102082404VSA000995260020261037
2600000079290000000700070004202601020000007929        100000202601020825552026010901000000041227023DELGADO ARAGON  DAVIS WILLIAMS AMERICO                      MULTIPAGOSEE                  BN.COM.PE                     1SOLES          0000000000000000000000000006700000001MINISTERIO DE TRANSPORTES Y COMUNICACIONES                  ENTIDAD EXTERNA                                             PASARELA PAGO ENTIDAD EXTERNA                               1767360269385  00000296090    000000000000000000000  20260102082431202601020824310000000000000020260102082555VSA000996260021578277
2600000080080000000700070004202601020000008008        100000202601020829282026010901000000008949549OSCCO SUAREZ  JUAN CARLOS                                   MULTIPAGOSEE                  BN.COM.PE                     1SOLES          0000000000000000000000000006700000001MINISTERIO DE TRANSPORTES Y COMUNICACIONES                  ENTIDAD EXTERNA                                             PASARELA PAGO ENTIDAD EXTERNA                               1767360445487  00000296090    000000000000000000000  20260102082727202601020827270000000000000020260102082928VSA000996260021580951
2600000080320000000700070004202601020000008032        100000202601020829012026010901000000002676851MI AN GALLO  VICTOR WILFREDO                                MULTIPAGOSEE                  BN.COM.PE                     1SOLES          0000000000000000000000000006700000001MINISTERIO DE TRANSPORTES Y COMUNICACIONES                  ENTIDAD EXTERNA                                             PASARELA PAGO ENTIDAD EXTERNA                               1767360514320  00000296090    000000000000000000000  20260102082836202601020828360000000000000020260102082901VSA000996260021580604
2600000080490000000700070004202601020000008049        100000202601020829542026010901000000070785704MENDEZ VERA ELIAS MELER                                     MULTIPAGOSEE                  BN.COM.PE                     1SOLES          0000000000000000000000000006700000001MINISTERIO DE TRANSPORTES Y COMUNICACIONES                  ENTIDAD EXTERNA                                             PASARELA PAGO ENTIDAD EXTERNA                               1767360555011  00000296090    000000000000000000000  20260102082917202601020829170000000000000020260102082954VSA000995260020264104
2600000080750000000700070004202601020000008075        100000202601020835572026010901000000041943741JARA JARA  YUDY MARGARITA                                   MULTIPAGOSEE                  BN.COM.PE                     1SOLES          0000000000000000000000000014700000001MINISTERIO DE TRANSPORTES Y COMUNICACIONES                  ENTIDAD EXTERNA                                             PASARELA PAGO ENTIDAD EXTERNA                               1767360607553  00000296090    000000000000000000000  20260102083009202601020830090000000000000020260102083557VSA000995260020267295
2600000080760000000700070004202601020000008076        100000202601020830432026010901000000008836232GARMA CALDERON  ALEJO                                       MULTIPAGOSEE                  BN.COM.PE                     1SOLES          0000000000000000000000000014700000001MINISTERIO DE TRANSPORTES Y COMUNICACIONES                  ENTIDAD EXTERNA                                             PASARELA PAGO ENTIDAD EXTERNA                               1767360607923  00000296090    000000000000000000000  20260102083009202601020830090000000000000020260102083043VSA000995260020264557
2600000081690000000700070004202601020000008169        100000202601020834342026010901000000048421766MANCHAY LOPEZ  ANDRES                                       MULTIPAGOSEE                  BN.COM.PE                     1SOLES          0000000000000000000000000006700000001MINISTERIO DE TRANSPORTES Y COMUNICACIONES                  ENTIDAD EXTERNA                                             PASARELA PAGO ENTIDAD EXTERNA                               1767360830856  00000296090    000000000000000000000  20260102083352202601020833520000000000000020260102083434VSA000996260021584807
2600000081780000000700070004202601020000008178        100000202601020834462026010901000000048219165AUCCAPUMA SINCHE RAYNER RUBEN                               MULTIPAGOSEE                  BN.COM.PE                     1SOLES          0000000000000000000000000006700000001MINISTERIO DE TRANSPORTES Y COMUNICACIONES                  ENTIDAD EXTERNA                                             PASARELA PAGO ENTIDAD EXTERNA                               1767360857980  00000296090    000000000000000000000  20260102083420202601020834200000000000000020260102083446VSA000995260020266670
2600000081980000000700070004202601020000008198        100000202601020835422026010901000000044598045PERALTA GAMARRA  SANTIAGO MANUEL                            MULTIPAGOSEE                  BN.COM.PE                     1SOLES          0000000000000000000000000006700000001MINISTERIO DE TRANSPORTES Y COMUNICACIONES                  ENTIDAD EXTERNA                                             PASARELA PAGO ENTIDAD EXTERNA                               1767360898016  00000296090    000000000000000000000  20260102083500202601020835000000000000000020260102083542VSA000995260020267162
2600000082390000000700070004202601020000008239        100000202601020837342026010901000000042658216ALARCON VASQUEZ  MIGUEL ANGEL                               MULTIPAGOSEE                  BN.COM.PE                     1SOLES          0000000000000000000000000006700000001MINISTERIO DE TRANSPORTES Y COMUNICACIONES                  ENTIDAD EXTERNA                                             PASARELA PAGO ENTIDAD EXTERNA                               1767360998233  00000296090    000000000000000000000  20260102083640202601020836400000000000000020260102083734VSA000995260020268196
2600000082440000000700070004202601020000008244        100000202601020838062026010906000020611731303ADRIAN HUERTA RUIZ                                          MULTIPAGOSEE                  BN.COM.PE                     1SOLES          0000000000000000000000000011300000001MINISTERIO DE TRANSPORTES Y COMUNICACIONES                  ENTIDAD EXTERNA                                             PASARELA PAGO ENTIDAD EXTERNA                               1767361007282  00000296090    000000000000000000000  20260102083649202601020836490000000000000020260102083806VSA000996260021587544
2600000082830000000700070004202601020000008283        100000202601020838232026010906000020610593799MARITZA ROCIO SIMEON CHAVEZ                                 MULTIPAGOSEE                  BN.COM.PE                     1SOLES          0000000000000000000000000011300000001MINISTERIO DE TRANSPORTES Y COMUNICACIONES                  ENTIDAD EXTERNA                                             PASARELA PAGO ENTIDAD EXTERNA                               1767361082208  00000296090    000000000000000000000  20260102083804202601020838040000000000000020260102083823VSA000995260020268635
2600000083230000000700070004202601020000008323        100000202601020840342026010901000000080219276RODRIGUEZ TORRES JOSUE HERNAN                               MULTIPAGOSEE                  BN.COM.PE                     1SOLES          0000000000000000000000000006700000001MINISTERIO DE TRANSPORTES Y COMUNICACIONES                  ENTIDAD EXTERNA                                             PASARELA PAGO ENTIDAD EXTERNA                               1767361155129  00000296090    000000000000000000000  20260102083917202601020839170000000000000020260102084034VSA000995260020269804
2600000083910000000700070004202601020000008391        100000202601020842512026010901000000071257007TARAZONA MORI  YORDE ALEXANDER                              MULTIPAGOSEE                  BN.COM.PE                     1SOLES          0000000000000000000000000006700000001MINISTERIO DE TRANSPORTES Y COMUNICACIONES                  ENTIDAD EXTERNA                                             PASARELA PAGO ENTIDAD EXTERNA                               1767361262772  00000296090    000000000000000000000  20260102084104202601020841040000000000000020260102084251VSA000996260021591199
2600000083980000000700070004202601020000008398        100000202601020841372026010906000020610593799MARITZA ROCIO SIMEON CHAVEZ                                 MULTIPAGOSEE                  BN.COM.PE                     1SOLES          0000000000000000000000000011300000001MINISTERIO DE TRANSPORTES Y COMUNICACIONES                  ENTIDAD EXTERNA                                             PASARELA PAGO ENTIDAD EXTERNA                               1767361270018  00000296090    000000000000000000000  20260102084112202601020841120000000000000020260102084137VSA000995260020270411
2600000084290000000700070004202601020000008429        100000202601020843322026010901000000007307944CHAVEZ DE PAZ  GREGORIO DENNIS                              MULTIPAGOSEE                  BN.COM.PE                     1SOLES          0000000000000000000000000014700000001MINISTERIO DE TRANSPORTES Y COMUNICACIONES                  ENTIDAD EXTERNA                                             PASARELA PAGO ENTIDAD EXTERNA                               1767361337046  00000296090    000000000000000000000  20260102084219202601020842190000000000000020260102084332VSA000995260020271489
2600000084330000000700070004202601020000008433        100000202601020843322026010901000000044576009LAVIO  AUPA  JUAN CARLOS                                    MULTIPAGOSEE                  BN.COM.PE                     1SOLES          0000000000000000000000000014700000001MINISTERIO DE TRANSPORTES Y COMUNICACIONES                  ENTIDAD EXTERNA                                             PASARELA PAGO ENTIDAD EXTERNA                               1767361343082  00000296090    000000000000000000000  20260102084225202601020842250000000000000020260102084332VSA000995260020271478
2600000084570000000700070004202601020000008457        100000202601020845112026010901000000009944023MATOS REMISION  AURELIO EDUARDO                             MULTIPAGOSEE                  BN.COM.PE                     1SOLES          0000000000000000000000000014700000001MINISTERIO DE TRANSPORTES Y COMUNICACIONES                  ENTIDAD EXTERNA                                             PASARELA PAGO ENTIDAD EXTERNA                               1767361387707  00000296090    000000000000000000000  20260102084309202601020843090000000000000020260102084511VSA000996260021592948
2600000084600000000700070004202601020000008460        100000202601020844212026010901000000045998300RUIZ BALLESTEROS  EDWIN                                     MULTIPAGOSEE                  BN.COM.PE                     1SOLES          0000000000000000000000000014700000001MINISTERIO DE TRANSPORTES Y COMUNICACIONES                  ENTIDAD EXTERNA                                             PASARELA PAGO ENTIDAD EXTERNA                               1767361391813  00000296090    000000000000000000000  20260102084313202601020843130000000000000020260102084421VSA000995260020271953
2600000084850000000700070004202601020000008485        100000202601020847292026010901000000077464013MARTINEZ LEVANO  ADONIS JOEL                                MULTIPAGOSEE                  BN.COM.PE                     1SOLES          0000000000000000000000000014700000001MINISTERIO DE TRANSPORTES Y COMUNICACIONES                  ENTIDAD EXTERNA                                             PASARELA PAGO ENTIDAD EXTERNA                               1767361431594  00000296090    000000000000000000000  20260102084353202601020843530000000000000020260102084729VSA000995260020273718
2600000084870000000700070004202601020000008487        100000202601020845112026010901000000080123012MAGUI A OROPEZA  JUAN MARIO                                 MULTIPAGOSEE                  BN.COM.PE                     1SOLES          0000000000000000000000000006700000001MINISTERIO DE TRANSPORTES Y COMUNICACIONES                  ENTIDAD EXTERNA                                             PASARELA PAGO ENTIDAD EXTERNA                               1767361435848  00000296090    000000000000000000000  20260102084357202601020843570000000000000020260102084511VSA000995260020272385
2600000085310000000700070004202601020000008531        100000202601020845262026010906000020610593799MARITZA ROCIO SIMEON CHAVEZ                                 MULTIPAGOSEE                  BN.COM.PE                     1SOLES          0000000000000000000000000011300000001MINISTERIO DE TRANSPORTES Y COMUNICACIONES                  ENTIDAD EXTERNA                                             PASARELA PAGO ENTIDAD EXTERNA                               1767361498651  00000296090    000000000000000000000  20260102084500202601020845000000000000000020260102084526VSA000995260020272513
2600000086210000000700070004202601020000008621        100000202601020849112026010901000000010107406CABRERA PAJARES  ANTENOR JUAN                               MULTIPAGOSEE                  BN.COM.PE                     1SOLES          0000000000000000000000000014700000001MINISTERIO DE TRANSPORTES Y COMUNICACIONES                  ENTIDAD EXTERNA                                             PASARELA PAGO ENTIDAD EXTERNA                               1767361659362  00000296090    000000000000000000000  20260102084741202601020847410000000000000020260102084911VSA000995260020274708
2600000087170000000700070004202601020000008717        100000202601020850142026010901000000080043670ARCE FALCON  LIZARDO RAMON                                  MULTIPAGOSEE                  BN.COM.PE                     1SOLES          0000000000000000000000000006700000001MINISTERIO DE TRANSPORTES Y COMUNICACIONES                  ENTIDAD EXTERNA                                             PASARELA PAGO ENTIDAD EXTERNA                               1767361781760  00000296090    000000000000000000000  20260102084943202601020849430000000000000020260102085014VSA000995260020275324
2600000087620000000700070004202601020000008762        100000202601020851542026010901000000029628911CARDENAS ANCCO  ELIAS MICHAEL                               MULTIPAGOSEE                  BN.COM.PE                     1SOLES          0000000000000000000000000006700000001MINISTERIO DE TRANSPORTES Y COMUNICACIONES                  ENTIDAD EXTERNA                                             PASARELA PAGO ENTIDAD EXTERNA                               1767361861195  00000296090    000000000000000000000  20260102085103202601020851030000000000000020260102085154VSA000996260021598509
2600000087830000000700070004202601020000008783        100000202601020852192026010901000000043660202HUILLCA SILVA  ANTONIO                                      MULTIPAGOSEE                  BN.COM.PE                     1SOLES          0000000000000000000000000014700000001MINISTERIO DE TRANSPORTES Y COMUNICACIONES                  ENTIDAD EXTERNA                                             PASARELA PAGO ENTIDAD EXTERNA                               1767361901758  00000296090    000000000000000000000  20260102085143202601020851430000000000000020260102085219VSA000995260020276565
2600000087940000000700070004202601020000008794        100000202601020852272026010901000000060469484MARCHENA HERNANDEZ  PEDRO CESAR                             MULTIPAGOSEE                  BN.COM.PE                     1SOLES          0000000000000000000000000014700000001MINISTERIO DE TRANSPORTES Y COMUNICACIONES                  ENTIDAD EXTERNA                                             PASARELA PAGO ENTIDAD EXTERNA                               1767361914624  00000296090    000000000000000000000  20260102085156202601020851560000000000000020260102085227VSA000995260020276640
2600000088270000000700070004202601020000008827        100000202601020855332026010901000000040625644JULCA LOPEZ  KARLA JACQUELINE                               MULTIPAGOSEE                  BN.COM.PE                     1SOLES          0000000000000000000000000006700000001MINISTERIO DE TRANSPORTES Y COMUNICACIONES                  ENTIDAD EXTERNA                                             PASARELA PAGO ENTIDAD EXTERNA                               1767361965453  00000296090    000000000000000000000  20260102085247202601020852470000000000000020260102085533VSA000995260020278380
2600000088330000000700070004202601020000008833        100000202601020853292026010901000000006585993FLORES ALARCON  LUIS ALBERTO                                MULTIPAGOSEE                  BN.COM.PE                     1SOLES          0000000000000000000000000014700000001MINISTERIO DE TRANSPORTES Y COMUNICACIONES                  ENTIDAD EXTERNA                                             PASARELA PAGO ENTIDAD EXTERNA                               1767361974792  00000296090    000000000000000000000  20260102085257202601020852570000000000000020260102085329VSA000995260020277245
2600000088410000000700070004202601020000008841        100000202601020856262026010901000000042763250REYES VILLANUEVA ELMER MANUEL                               MULTIPAGOSEE                  BN.COM.PE                     1SOLES          0000000000000000000000000006700000001MINISTERIO DE TRANSPORTES Y COMUNICACIONES                  ENTIDAD EXTERNA                                             PASARELA PAGO ENTIDAD EXTERNA                               1767361986714  00000296090    000000000000000000000  20260102085308202601020853080000000000000020260102085626VSA000995260020278859
2600000088650000000700070004202601020000008865        100000202601020854492026010901000000006006567MARDINI YA EZ  ABRAHAM HUMBERTO                             MULTIPAGOSEE                  BN.COM.PE                     1SOLES          0000000000000000000000000014700000001MINISTERIO DE TRANSPORTES Y COMUNICACIONES                  ENTIDAD EXTERNA                                             PASARELA PAGO ENTIDAD EXTERNA                               1767362036356  00000296090    000000000000000000000  20260102085358202601020853580000000000000020260102085449VSA000996260021600894
2600000088750000000700070004202601020000008875        100000202601020856192026010901000000006268176MENDOZA BUSTAMANTE  MANUEL JUAN                             MULTIPAGOSEE                  BN.COM.PE                     1SOLES          0000000000000000000000000014700000001MINISTERIO DE TRANSPORTES Y COMUNICACIONES                  ENTIDAD EXTERNA                                             PASARELA PAGO ENTIDAD EXTERNA                               1767362048454  00000296090    000000000000000000000  20260102085410202601020854100000000000000020260102085619VSA000995260020278806
2600000088970000000700070004202601020000008897        100000202601020855132026010901000000076953118ESTRADA GUTIERREZ  RONI                                     MULTIPAGOSEE                  BN.COM.PE                     1SOLES          0000000000000000000000000006700000001MINISTERIO DE TRANSPORTES Y COMUNICACIONES                  ENTIDAD EXTERNA                                             PASARELA PAGO ENTIDAD EXTERNA                               1767362077534  00000296090    000000000000000000000  20260102085439202601020854390000000000000020260102085513VSA000996260021601221
2600000089200000000700070004202601020000008920        100000202601020856492026010901000000032124111NORABUENA CASTILLO ANGEL CUSTODIO                           MULTIPAGOSEE                  BN.COM.PE                     1SOLES          0000000000000000000000000006700000001MINISTERIO DE TRANSPORTES Y COMUNICACIONES                  ENTIDAD EXTERNA                                             PASARELA PAGO ENTIDAD EXTERNA                               1767362108801  00000296090    000000000000000000000  20260102085510202601020855100000000000000020260102085649VSA000995260020279056
2600000089250000000700070004202601020000008925        100000202601020857122026010901000000073786430TTUPA CCALLO  IRVIN ARMANDO                                 MULTIPAGOSEE                  BN.COM.PE                     1SOLES          0000000000000000000000000006700000001MINISTERIO DE TRANSPORTES Y COMUNICACIONES                  ENTIDAD EXTERNA                                             PASARELA PAGO ENTIDAD EXTERNA                               1767362117263  00000296090    000000000000000000000  20260102085519202601020855190000000000000020260102085712VSA000995260020279261
2600000089830000000700070004202601020000008983        100000202601020857572026010901000000080207107ORTEGA MINAYA  EBERTH                                       MULTIPAGOSEE                  BN.COM.PE                     1SOLES          0000000000000000000000000006700000001MINISTERIO DE TRANSPORTES Y COMUNICACIONES                  ENTIDAD EXTERNA                                             PASARELA PAGO ENTIDAD EXTERNA                               1767362216435  00000296090    000000000000000000000  20260102085658202601020856580000000000000020260102085757VSA000995260020279659
2600000090180000000700070004202601020000009018        100000202601020858472026010901000000047748734VALERO MERCADO  JOEL ANTONIO                                MULTIPAGOSEE                  BN.COM.PE                     1SOLES          0000000000000000000000000014700000001MINISTERIO DE TRANSPORTES Y COMUNICACIONES                  ENTIDAD EXTERNA                                             PASARELA PAGO ENTIDAD EXTERNA                               1767362272057  00000296090    000000000000000000000  20260102085754202601020857540000000000000020260102085847VSA000995260020280099
2600000090520000000700070004202601020000009052        100000202601020859202026010901000000007788846LOZADA TRIMBATH  MINNIE ELOISA                              MULTIPAGOSEE                  BN.COM.PE                     1SOLES          0000000000000000000000000014700000001MINISTERIO DE TRANSPORTES Y COMUNICACIONES                  ENTIDAD EXTERNA                                             PASARELA PAGO ENTIDAD EXTERNA                               1767362310669  00000296090    000000000000000000000  20260102085832202601020858320000000000000020260102085920VSA000995260020280390
2600000090650000000700070004202601020000009065        100000202601020900082026010901000000043783791RODRIGUEZ MEZA  WALTER ENRIQUE                              MULTIPAGOSEE                  BN.COM.PE                     1SOLES          0000000000000000000000000014700000001MINISTERIO DE TRANSPORTES Y COMUNICACIONES                  ENTIDAD EXTERNA                                             PASARELA PAGO ENTIDAD EXTERNA                               1767362324895  00000296090    000000000000000000000  20260102085846202601020858460000000000000020260102090008VSA000996260021605263
2600000091130000000700070004202601020000009113        100000202601020900372026010901000000046395857SANA AYTA  GABRIEL FERNANDO                                 MULTIPAGOSEE                  BN.COM.PE                     1SOLES          0000000000000000000000000006700000001MINISTERIO DE TRANSPORTES Y COMUNICACIONES                  ENTIDAD EXTERNA                                             PASARELA PAGO ENTIDAD EXTERNA                               1767362404584  00000296090    000000000000000000000  20260102090006202601020900060000000000000020260102090037VSA000995260020281121
2600000091350000000700070004202601020000009135        100000202601020901502026010901000000078292941CUBAS IRIGOIN JHON CESAR                                    MULTIPAGOSEE                  BN.COM.PE                     1SOLES          0000000000000000000000000006700000001MINISTERIO DE TRANSPORTES Y COMUNICACIONES                  ENTIDAD EXTERNA                                             PASARELA PAGO ENTIDAD EXTERNA                               1767362443035  00000296090    000000000000000000000  20260102090045202601020900450000000000000020260102090150VSA000995260020281807
2600000091580000000700070004202601020000009158        100000202601020902342026010901000000010603487PARCO ARIAS  JOSE RAUL                                      MULTIPAGOSEE                  BN.COM.PE                     1SOLES          0000000000000000000000000014700000001MINISTERIO DE TRANSPORTES Y COMUNICACIONES                  ENTIDAD EXTERNA                                             PASARELA PAGO ENTIDAD EXTERNA                               1767362474829  00000296090    000000000000000000000  20260102090116202601020901160000000000000020260102090234VSA000995260020282252
2600000091640000000700070004202601020000009164        100000202601020902122026010901000000077905740TORRES LLOCLLE  HAMILTON ELVIS                              MULTIPAGOSEE                  BN.COM.PE                     1SOLES          0000000000000000000000000006700000001MINISTERIO DE TRANSPORTES Y COMUNICACIONES                  ENTIDAD EXTERNA                                             PASARELA PAGO ENTIDAD EXTERNA                               1767362479442  00000296090    000000000000000000000  20260102090121202601020901210000000000000020260102090212VSA000996260021607054
2600000092900000000700070004202601020000009290        100000202601020905102026010901000000044553386VALLADOLID CHUNGA  CARLOS                                   MULTIPAGOSEE                  BN.COM.PE                     1SOLES          0000000000000000000000000006700000001MINISTERIO DE TRANSPORTES Y COMUNICACIONES                  ENTIDAD EXTERNA                                             PASARELA PAGO ENTIDAD EXTERNA                               1767362658108  00000296090    000000000000000000000  20260102090420202601020904200000000000000020260102090510VSA000995260020283752
2600000093380000000700070004202601020000009338        100000202601020906162026010901000000041215487ROSALES FLORES  NELINO VICTOR                               MULTIPAGOSEE                  BN.COM.PE                     1SOLES          0000000000000000000000000014700000001MINISTERIO DE TRANSPORTES Y COMUNICACIONES                  ENTIDAD EXTERNA                                             PASARELA PAGO ENTIDAD EXTERNA                               1767362727628  00000296090    000000000000000000000  20260102090529202601020905290000000000000020260102090616VSA000996260021610552
2600000094130000000700070004202601020000009413        100000202601020908302026010901000000076754516EURIBE VALDIVIEZO  ALEXANDRA JANIM                          MULTIPAGOSEE                  BN.COM.PE                     1SOLES          0000000000000000000000000006700000001MINISTERIO DE TRANSPORTES Y COMUNICACIONES                  ENTIDAD EXTERNA                                             PASARELA PAGO ENTIDAD EXTERNA                               1767362836824  00000296090    000000000000000000000  20260102090718202601020907180000000000000020260102090830VSA000995260020285689
2600000094510000000700070004202601020000009451        100000202601020908412026010901000000009394758ALVA MEZA  MANUEL                                           MULTIPAGOSEE                  BN.COM.PE                     1SOLES          0000000000000000000000000014700000001MINISTERIO DE TRANSPORTES Y COMUNICACIONES                  ENTIDAD EXTERNA                                             PASARELA PAGO ENTIDAD EXTERNA                               1767362883290  00000296090    000000000000000000000  20260102090805202601020908050000000000000020260102090841VSA000995260020285806
2600000095190000000700070004202601020000009519        100000202601020924122026010901000000009717586BORDA TALLEDO  BRATZO CESAR                                 MULTIPAGOSEE                  BN.COM.PE                     1SOLES          0000000000000000000000000006700000001MINISTERIO DE TRANSPORTES Y COMUNICACIONES                  ENTIDAD EXTERNA                                             PASARELA PAGO ENTIDAD EXTERNA                               1767362975370  00000296090    000000000000000000000  20260102090937202601020909370000000000000020260102092412VSA000995260020295106
2600000095450000000700070004202601020000009545        100000202601020911122026010901000000006986778ZANELLI DE LA CRUZ  LUIS ENRIQUE                            MULTIPAGOSEE                  BN.COM.PE                     1SOLES          0000000000000000000000000014700000001MINISTERIO DE TRANSPORTES Y COMUNICACIONES                  ENTIDAD EXTERNA                                             PASARELA PAGO ENTIDAD EXTERNA                               1767363011042  00000296090    000000000000000000000  20260102091013202601020910130000000000000020260102091112VSA000995260020287231
2600000095540000000700070004202601020000009554        100000202601020910562026010901000000041263741TINEO RAMOS  GRABIEL                                        MULTIPAGOSEE                  BN.COM.PE                     1SOLES          0000000000000000000000000014700000001MINISTERIO DE TRANSPORTES Y COMUNICACIONES                  ENTIDAD EXTERNA                                             PASARELA PAGO ENTIDAD EXTERNA                               1767363027817  00000296090    000000000000000000000  20260102091029202601020910290000000000000020260102091056VSA000995260020287077
2600000095860000000700070004202601020000009586        100000202601020912232026010901000000010511497FUENTES LOPEZ  RICHARD                                      MULTIPAGOSEE                  BN.COM.PE                     1SOLES          0000000000000000000000000014700000001MINISTERIO DE TRANSPORTES Y COMUNICACIONES                  ENTIDAD EXTERNA                                             PASARELA PAGO ENTIDAD EXTERNA                               1767363062647  00000296090    000000000000000000000  20260102091104202601020911040000000000000020260102091223VSA000996260021615930
2600000095950000000700070004202601020000009595        100000202601020914542026010906000010736792571ELIAS NOE ROBLES ESCOBEDO                                   MULTIPAGOSEE                  BN.COM.PE                     1SOLES          0000000000000000000000000011300000001MINISTERIO DE TRANSPORTES Y COMUNICACIONES                  ENTIDAD EXTERNA                                             PASARELA PAGO ENTIDAD EXTERNA                               1767363074256  00000296090    000000000000000000000  20260102091116202601020911160000000000000020260102091454VSA000995260020289418
2600000097000000000700070004202601020000009700        100000202601020914162026010901000000047313958CRUZ TAPIA  ELIAS ISMAEL                                    MULTIPAGOSEE                  BN.COM.PE                     1SOLES          0000000000000000000000000014700000001MINISTERIO DE TRANSPORTES Y COMUNICACIONES                  ENTIDAD EXTERNA                                             PASARELA PAGO ENTIDAD EXTERNA                               1767363219068  00000296090    000000000000000000000  20260102091341202601020913410000000000000020260102091416VSA000995260020289014
2600000097550000000700070004202601020000009755        100000202601020915412026010901000000009171896BASTIDAS SALVADOR  EDILBERTO                                MULTIPAGOSEE                  BN.COM.PE                     1SOLES          0000000000000000000000000014700000001MINISTERIO DE TRANSPORTES Y COMUNICACIONES                  ENTIDAD EXTERNA                                             PASARELA PAGO ENTIDAD EXTERNA                               1767363296410  00000296090    000000000000000000000  20260102091458202601020914580000000000000020260102091541VSA000995260020289896
2600000097960000000700070004202601020000009796        100000202601020916202026010901000000073023027GUTIERREZ JULIAN  EDDIE PAULO                               MULTIPAGOSEE                  BN.COM.PE                     1SOLES          0000000000000000000000000014700000001MINISTERIO DE TRANSPORTES Y COMUNICACIONES                  ENTIDAD EXTERNA                                             PASARELA PAGO ENTIDAD EXTERNA                               1767363339217  00000296090    000000000000000000000  20260102091541202601020915410000000000000020260102091620VSA000995260020290253
2600000098470000000700070004202601020000009847        100000202601020917332026010901000000010870665BERROCAL RUIZ  CHRISTIAN ARTURO                             MULTIPAGOSEE                  BN.COM.PE                     1SOLES          0000000000000000000000000014700000001MINISTERIO DE TRANSPORTES Y COMUNICACIONES                  ENTIDAD EXTERNA                                             PASARELA PAGO ENTIDAD EXTERNA                               1767363401094  00000296090    000000000000000000000  20260102091643202601020916430000000000000020260102091733VSA000995260020290999
2600000100060000000700070004202601020000010006        100000202601020920462026010901000000021417810HUARCAYA PALACIOS  PEDRO RUBEN                              MULTIPAGOSEE                  BN.COM.PE                     1SOLES          0000000000000000000000000014700000001MINISTERIO DE TRANSPORTES Y COMUNICACIONES                  ENTIDAD EXTERNA                                             PASARELA PAGO ENTIDAD EXTERNA                               1767363614011  00000296090    000000000000000000000  20260102092016202601020920160000000000000020260102092046VSA000995260020292978
2600000100140000000700070004202601020000010014        100000202601020923002026010906000020608116428VENANCIO CHOQQUE USCAMAYTA                                  MULTIPAGOSEE                  BN.COM.PE                     1SOLES          0000000000000000000000000011300000001MINISTERIO DE TRANSPORTES Y COMUNICACIONES                  ENTIDAD EXTERNA                                             PASARELA PAGO ENTIDAD EXTERNA                               1767363619809  00000296090    000000000000000000000  20260102092021202601020920210000000000000020260102092300VSA000995260020294380
2600000101260000000700070004202601020000010126        100000202601020923512026010901000000076233540VASQUEZ VIZCONDE FRANK JOSIAS                               MULTIPAGOSEE                  BN.COM.PE                     1SOLES          0000000000000000000000000006700000001MINISTERIO DE TRANSPORTES Y COMUNICACIONES                  ENTIDAD EXTERNA                                             PASARELA PAGO ENTIDAD EXTERNA                               1767363750576  00000296090    000000000000000000000  20260102092232202601020922320000000000000020260102092351VSA000995260020294887
2600000101270000000700070004202601020000010127        100000202601020924072026010901000000010004338ARNAO VALDERRAMA  HOMERO JAVIER                             MULTIPAGOSEE                  BN.COM.PE                     1SOLES          0000000000000000000000000014700000001MINISTERIO DE TRANSPORTES Y COMUNICACIONES                  ENTIDAD EXTERNA                                             PASARELA PAGO ENTIDAD EXTERNA                               1767363751773  00000296090    000000000000000000000  20260102092233202601020922330000000000000020260102092407VSA000996260021626646
2600000101800000000700070004202601020000010180        100000202601020924012026010901000000021110453ROMERO CHAGUA GREGORIO                                      MULTIPAGOSEE                  BN.COM.PE                     1SOLES          0000000000000000000000000006700000001MINISTERIO DE TRANSPORTES Y COMUNICACIONES                  ENTIDAD EXTERNA                                             PASARELA PAGO ENTIDAD EXTERNA                               1767363819839  00000296090    000000000000000000000  20260102092341202601020923410000000000000020260102092401VSA000996260021626546
2600000101860000000700070004202601020000010186        100000202601020925032026010901000000040749716DIAZ MEDINA  EDDER ANTONIO                                  MULTIPAGOSEE                  BN.COM.PE                     1SOLES          0000000000000000000000000014700000001MINISTERIO DE TRANSPORTES Y COMUNICACIONES                  ENTIDAD EXTERNA                                             PASARELA PAGO ENTIDAD EXTERNA                               1767363831758  00000296090    000000000000000000000  20260102092353202601020923530000000000000020260102092503VSA000995260020295668
2600000102230000000700070004202601020000010223        100000202601020925082026010901000000010518745PEREZ HERRERA  ROLAN JAVIER                                 MULTIPAGOSEE                  BN.COM.PE                     1SOLES          0000000000000000000000000014700000001MINISTERIO DE TRANSPORTES Y COMUNICACIONES                  ENTIDAD EXTERNA                                             PASARELA PAGO ENTIDAD EXTERNA                               1767363875809  00000296090    000000000000000000000  20260102092437202601020924370000000000000020260102092508VSA000996260021627609
2600000102330000000700070004202601020000010233        100000202601020925272026010901000000029613254HURTADO SUAREZ FREDY ELMER                                  MULTIPAGOSEE                  BN.COM.PE                     1SOLES          0000000000000000000000000006700000001MINISTERIO DE TRANSPORTES Y COMUNICACIONES                  ENTIDAD EXTERNA                                             PASARELA PAGO ENTIDAD EXTERNA                               1767363885976  00000296090    000000000000000000000  20260102092448202601020924480000000000000020260102092527VSA000995260020295896
2600000102630000000700070004202601020000010263        100000202601020926042026010901000000046836076SONCCO MANCILLA  YENIFER KATHERIN                           MULTIPAGOSEE                  BN.COM.PE                     1SOLES          0000000000000000000000000006700000001MINISTERIO DE TRANSPORTES Y COMUNICACIONES                  ENTIDAD EXTERNA                                             PASARELA PAGO ENTIDAD EXTERNA                               1767363928436  00000296090    000000000000000000000  20260102092530202601020925300000000000000020260102092604VSA000996260021628441
2600000102790000000700070004202601020000010279        100000202601020926522026010901000000072259740ALVAREZ SOTO  LUIS FERNANDO                                 MULTIPAGOSEE                  BN.COM.PE                     1SOLES          0000000000000000000000000006700000001MINISTERIO DE TRANSPORTES Y COMUNICACIONES                  ENTIDAD EXTERNA                                             PASARELA PAGO ENTIDAD EXTERNA                               1767363946828  00000296090    000000000000000000000  20260102092548202601020925480000000000000020260102092652VSA000995260020296791
2600000103070000000700070004202601020000010307        100000202601020927412026010901000000041040376REYES CUESTAS  JONATHAN TOBIAS                              MULTIPAGOSEE                  BN.COM.PE                     1SOLES          0000000000000000000000000014700000001MINISTERIO DE TRANSPORTES Y COMUNICACIONES                  ENTIDAD EXTERNA                                             PASARELA PAGO ENTIDAD EXTERNA                               1767363980095  00000296090    000000000000000000000  20260102092622202601020926220000000000000020260102092741VSA000995260020297350
2600000103140000000700070004202601020000010314        100000202601020928242026010901000000009051677HILARIO MILLA  VICTOR                                       MULTIPAGOSEE                  BN.COM.PE                     1SOLES          0000000000000000000000000014700000001MINISTERIO DE TRANSPORTES Y COMUNICACIONES                  ENTIDAD EXTERNA                                             PASARELA PAGO ENTIDAD EXTERNA                               1767363988894  00000296090    000000000000000000000  20260102092630202601020926300000000000000020260102092824VSA000995260020297759
2600000106090000000700070004202601020000010609        100000202601020933592026010901000000072785794CASTILLO ASTURRIZAGA  MARIO                                 MULTIPAGOSEE                  BN.COM.PE                     1SOLES          0000000000000000000000000014700000001MINISTERIO DE TRANSPORTES Y COMUNICACIONES                  ENTIDAD EXTERNA                                             PASARELA PAGO ENTIDAD EXTERNA                               1767364332810  00000296090    000000000000000000000  20260102093214202601020932140000000000000020260102093359VSA000996260021636025
2600000106210000000700070004202601020000010621        100000202601020933112026010906000010448397705MARCOS SUAREZ VENTURA                                       MULTIPAGOSEE                  BN.COM.PE                     1SOLES          0000000000000000000000000010800000001MINISTERIO DE TRANSPORTES Y COMUNICACIONES                  ENTIDAD EXTERNA                                             PASARELA PAGO ENTIDAD EXTERNA                               1767364344274  00000296090    000000000000000000000  20260102093226202601020932260000000000000020260102093311VSA000995260020300796
2600000106550000000700070004202601020000010655        100000202601020934512026010906000020555138998ALFONSO LUIS GALVEZ VILLANUEVA                              MULTIPAGOSEE                  BN.COM.PE                     1SOLES          0000000000000000000000000011300000001MINISTERIO DE TRANSPORTES Y COMUNICACIONES                  ENTIDAD EXTERNA                                             PASARELA PAGO ENTIDAD EXTERNA                               1767364372598  00000296090    000000000000000000000  20260102093254202601020932540000000000000020260102093451VSA000996260021636857
2600000106920000000700070004202601020000010692        100000202601020934482026010901000000029627051MAQUERA CONDORI  ROLANDO RICHARD                            MULTIPAGOSEE                  BN.COM.PE                     1SOLES          0000000000000000000000000014700000001MINISTERIO DE TRANSPORTES Y COMUNICACIONES                  ENTIDAD EXTERNA                                             PASARELA PAGO ENTIDAD EXTERNA                               1767364417283  00000296090    000000000000000000000  20260102093339202601020933390000000000000020260102093448VSA000995260020301859
2600000107950000000700070004202601020000010795        100000202601020937112026010901000000070397332GRAY URIARTE  MARIA DE FATIMA                               MULTIPAGOSEE                  BN.COM.PE                     1SOLES          0000000000000000000000000014700000001MINISTERIO DE TRANSPORTES Y COMUNICACIONES                  ENTIDAD EXTERNA                                             PASARELA PAGO ENTIDAD EXTERNA                               1767364531227  00000296090    000000000000000000000  20260102093533202601020935330000000000000020260102093711VSA000995260020303364
2600000108640000000700070004202601020000010864        100000202601020938112026010901000000009203714OCHOA SARAVIA  WALTER                                       MULTIPAGOSEE                  BN.COM.PE                     1SOLES          0000000000000000000000000006700000001MINISTERIO DE TRANSPORTES Y COMUNICACIONES                  ENTIDAD EXTERNA                                             PASARELA PAGO ENTIDAD EXTERNA                               1767364611221  00000296090    000000000000000000000  20260102093653202601020936530000000000000020260102093811VSA000996260021640130
2600000109040000000700070004202601020000010904        100000202601020941132026010901000000077697800JUAREZ LAPIERRE  DAVID SEVERINO                             MULTIPAGOSEE                  BN.COM.PE                     1SOLES          0000000000000000000000000006700000001MINISTERIO DE TRANSPORTES Y COMUNICACIONES                  ENTIDAD EXTERNA                                             PASARELA PAGO ENTIDAD EXTERNA                               1767364650754  00000296090    000000000000000000000  20260102093732202601020937320000000000000020260102094113VSA000996260021643205
2600000109730000000700070004202601020000010973        100000202601020939562026010901000000070864189SOTELO TELLO CARLOS BRAULIO                                 MULTIPAGOSEE                  BN.COM.PE                     1SOLES          0000000000000000000000000006700000001MINISTERIO DE TRANSPORTES Y COMUNICACIONES                  ENTIDAD EXTERNA                                             PASARELA PAGO ENTIDAD EXTERNA                               1767364721484  00000296090    000000000000000000000  20260102093843202601020938430000000000000020260102093956VSA000995260020305197
2600000111050000000700070004202601020000011105        100000202601020942432026010901000000072467470QUENAYA SUAREZ  RENATO JOSE                                 MULTIPAGOSEE                  BN.COM.PE                     1SOLES          0000000000000000000000000014700000001MINISTERIO DE TRANSPORTES Y COMUNICACIONES                  ENTIDAD EXTERNA                                             PASARELA PAGO ENTIDAD EXTERNA                               1767364879637  00000296090    000000000000000000000  20260102094121202601020941210000000000000020260102094243VSA000995260020307009
2600000112020000000700070004202601020000011202        100000202601020943322026010901000000046807394YUCRA CCOSA A  ROSSELL DARWIN                               MULTIPAGOSEE                  BN.COM.PE                     1SOLES          0000000000000000000000000006700000001MINISTERIO DE TRANSPORTES Y COMUNICACIONES                  ENTIDAD EXTERNA                                             PASARELA PAGO ENTIDAD EXTERNA                               1767364979894  00000296090    000000000000000000000  20260102094301202601020943010000000000000020260102094332VSA000995260020307532
2600000112330000000700070004202601020000011233        100000202601020946052026010901000000045941536TENORIO ARANA  LUIS ALBERTO                                 MULTIPAGOSEE                  BN.COM.PE                     1SOLES          0000000000000000000000000014700000001MINISTERIO DE TRANSPORTES Y COMUNICACIONES                  ENTIDAD EXTERNA                                             PASARELA PAGO ENTIDAD EXTERNA                               1767365007463  00000296090    000000000000000000000  20260102094329202601020943290000000000000020260102094605VSA000995260020309265
2600000112870000000700070004202601020000011287        100000202601020945062026010901000000041938851CACHAY GALLARDO  JOSE ELMER                                 MULTIPAGOSEE                  BN.COM.PE                     1SOLES          0000000000000000000000000006700000001MINISTERIO DE TRANSPORTES Y COMUNICACIONES                  ENTIDAD EXTERNA                                             PASARELA PAGO ENTIDAD EXTERNA                               1767365061601  00000296090    000000000000000000000  20260102094423202601020944230000000000000020260102094506VSA000996260021647167
2600000113020000000700070004202601020000011302        100000202601020946112026010901000000042108280ZAVALA HEREDIA JUAN CARLOS                                  MULTIPAGOSEE                  BN.COM.PE                     1SOLES          0000000000000000000000000006700000001MINISTERIO DE TRANSPORTES Y COMUNICACIONES                  ENTIDAD EXTERNA                                             PASARELA PAGO ENTIDAD EXTERNA                               1767365077104  00000296090    000000000000000000000  20260102094439202601020944390000000000000020260102094611VSA000995260020309336
2600000113830000000700070004202601020000011383        100000202601020947522026010901000000071886400RIVAS LARA  GIANFRANCO MICHAELLI                            MULTIPAGOSEE                  BN.COM.PE                     1SOLES          0000000000000000000000000014700000001MINISTERIO DE TRANSPORTES Y COMUNICACIONES                  ENTIDAD EXTERNA                                             PASARELA PAGO ENTIDAD EXTERNA                               1767365164680  00000296090    000000000000000000000  20260102094606202601020946060000000000000020260102094752VSA000996260021650027
2600000114480000000700070004202601020000011448        100000202601020947582026010901000000043347692DIAZ CAMPOS  WILDER                                         MULTIPAGOSEE                  BN.COM.PE                     1SOLES          0000000000000000000000000014700000001MINISTERIO DE TRANSPORTES Y COMUNICACIONES                  ENTIDAD EXTERNA                                             PASARELA PAGO ENTIDAD EXTERNA                               1767365237666  00000296090    000000000000000000000  20260102094719202601020947190000000000000020260102094758VSA000995260020310562
2600000114550000000700070004202601020000011455        100000202601020948472026010901000000041966646RUIZ NOBLEJAS MISAEL MARTY                                  MULTIPAGOSEE                  BN.COM.PE                     1SOLES          0000000000000000000000000006700000001MINISTERIO DE TRANSPORTES Y COMUNICACIONES                  ENTIDAD EXTERNA                                             PASARELA PAGO ENTIDAD EXTERNA                               1767365248496  00000296090    000000000000000000000  20260102094730202601020947300000000000000020260102094847VSA000995260020311155
2600000115190000000700070004202601020000011519        100000202601020955332026010901000000004404294PINTO CORASI  JAVIER RUFINO                                 MULTIPAGOSEE                  BN.COM.PE                     1SOLES          0000000000000000000000000014700000001MINISTERIO DE TRANSPORTES Y COMUNICACIONES                  ENTIDAD EXTERNA                                             PASARELA PAGO ENTIDAD EXTERNA                               1767365315061  00000296090    000000000000000000000  20260102094837202601020948370000000000000020260102095533VSA000996260021658347
2600000115640000000700070004202601020000011564        100000202601020950352026010906000020608659880PEDRO ZAPATA VILLEGAS                                       MULTIPAGOSEE                  BN.COM.PE                     1SOLES          0000000000000000000000000011300000001MINISTERIO DE TRANSPORTES Y COMUNICACIONES                  ENTIDAD EXTERNA                                             PASARELA PAGO ENTIDAD EXTERNA                               1767365360260  00000296090    000000000000000000000  20260102094922202601020949220000000000000020260102095035VSA000995260020312403
2600000115680000000700070004202601020000011568        100000202601020952222026010901000000044876132CAMPOS JARA  VICTOR ANTONIO                                 MULTIPAGOSEE                  BN.COM.PE                     1SOLES          0000000000000000000000000014700000001MINISTERIO DE TRANSPORTES Y COMUNICACIONES                  ENTIDAD EXTERNA                                             PASARELA PAGO ENTIDAD EXTERNA                               1767365361162  00000296090    000000000000000000000  20260102094923202601020949230000000000000020260102095222VSA000996260021654849
2600000116460000000700070004202601020000011646        100000202601020954402026010901000000045263153MAMANI VIZCARRA MACK ALEJANDRO                              MULTIPAGOSEE                  BN.COM.PE                     1SOLES          0000000000000000000000000006700000001MINISTERIO DE TRANSPORTES Y COMUNICACIONES                  ENTIDAD EXTERNA                                             PASARELA PAGO ENTIDAD EXTERNA                               1767365459855  00000296090    000000000000000000000  20260102095101202601020951010000000000000020260102095440VSA000996260021657359
2600000117170000000700070004202601020000011717        100000202601020958312026010901000000007326424RODRIGUEZ SOTO  FRANCISCO                                   MULTIPAGOSEE                  BN.COM.PE                     1SOLES          0000000000000000000000000014700000001MINISTERIO DE TRANSPORTES Y COMUNICACIONES                  ENTIDAD EXTERNA                                             PASARELA PAGO ENTIDAD EXTERNA                               1767365531056  00000296090    000000000000000000000  20260102095213202601020952130000000000000020260102095831VSA000996260021661545
2600000117250000000700070004202601020000011725        100000202601020953122026010901000000031432121HANAMPA VALDEZ  BILLYN                                      MULTIPAGOSEE                  BN.COM.PE                     1SOLES          0000000000000000000000000006700000001MINISTERIO DE TRANSPORTES Y COMUNICACIONES                  ENTIDAD EXTERNA                                             PASARELA PAGO ENTIDAD EXTERNA                               1767365536967  00000296090    000000000000000000000  20260102095219202601020952190000000000000020260102095312VSA000995260020314252
2600000117270000000700070004202601020000011727        100000202601020953052026010901000000006460768GIL HUAMAN JUAN JOSE                                        MULTIPAGOSEE                  BN.COM.PE                     1SOLES          0000000000000000000000000014700000001MINISTERIO DE TRANSPORTES Y COMUNICACIONES                  ENTIDAD EXTERNA                                             PASARELA PAGO ENTIDAD EXTERNA                               1767365537868  00000296090    000000000000000000000  20260102095219202601020952190000000000000020260102095305VSA000996260021655647
2600000117380000000700070004202601020000011738        100000202601020953252026010901000000023277023JAVIER ENRIQUEZ  DACIO                                      MULTIPAGOSEE                  BN.COM.PE                     1SOLES          0000000000000000000000000006700000001MINISTERIO DE TRANSPORTES Y COMUNICACIONES                  ENTIDAD EXTERNA                                             PASARELA PAGO ENTIDAD EXTERNA                               1767365549140  00000296090    000000000000000000000  20260102095231202601020952310000000000000020260102095325VSA000996260021656004
2600000118210000000700070004202601020000011821        100000202601020955022026010901000000080645159GUTIERREZ BURGOS  NESTOR EDINSON                            MULTIPAGOSEE                  BN.COM.PE                     1SOLES          0000000000000000000000000014700000001MINISTERIO DE TRANSPORTES Y COMUNICACIONES                  ENTIDAD EXTERNA                                             PASARELA PAGO ENTIDAD EXTERNA                               1767365633505  00000296090    000000000000000000000  20260102095355202601020953550000000000000020260102095502VSA000996260021657782
2600000118480000000700070004202601020000011848        100000202601020955552026010901000000044827952SAVA DIAZ  GIANCARLO ANDREW                                 MULTIPAGOSEE                  BN.COM.PE                     1SOLES          0000000000000000000000000006700000001MINISTERIO DE TRANSPORTES Y COMUNICACIONES                  ENTIDAD EXTERNA                                             PASARELA PAGO ENTIDAD EXTERNA                               1767365654413  00000296090    000000000000000000000  20260102095416202601020954160000000000000020260102095555VSA000995260020316197
2600000118530000000700070004202601020000011853        100000202601020957162026010901000000025714091MORA MARTENS  VICTOR ANTONIO                                MULTIPAGOSEE                  BN.COM.PE                     1SOLES          0000000000000000000000000006700000001MINISTERIO DE TRANSPORTES Y COMUNICACIONES                  ENTIDAD EXTERNA                                             PASARELA PAGO ENTIDAD EXTERNA                               1767365665625  00000296090    000000000000000000000  20260102095427202601020954270000000000000020260102095716VSA000995260020317155
2600000120290000000700070004202601020000012029        100000202601021001522026010901000000076658853MORENO NU EZ  ARNOLL JOSUE                                  MULTIPAGOSEE                  BN.COM.PE                     1SOLES          0000000000000000000000000006700000001MINISTERIO DE TRANSPORTES Y COMUNICACIONES                  ENTIDAD EXTERNA                                             PASARELA PAGO ENTIDAD EXTERNA                               1767365848966  00000296090    000000000000000000000  20260102095731202601020957310000000000000020260102100152VSA000996260021665234
2600000120420000000700070004202601020000012042        100000202601020959282026010901000000040401284RIVADENEIRA ROALCABA VICTOR MANUEL                          MULTIPAGOSEE                  BN.COM.PE                     1SOLES          0000000000000000000000000006700000001MINISTERIO DE TRANSPORTES Y COMUNICACIONES                  ENTIDAD EXTERNA                                             PASARELA PAGO ENTIDAD EXTERNA                               1767365867394  00000296090    000000000000000000000  20260102095749202601020957490000000000000020260102095928VSA000995260020318715
2600000120530000000700070004202601020000012053        100000202601020959052026010901000000070049653TUPIA QUISPE  MARIO                                         MULTIPAGOSEE                  BN.COM.PE                     1SOLES          0000000000000000000000000006700000001MINISTERIO DE TRANSPORTES Y COMUNICACIONES                  ENTIDAD EXTERNA                                             PASARELA PAGO ENTIDAD EXTERNA                               1767365882077  00000296090    000000000000000000000  20260102095804202601020958040000000000000020260102095905VSA000995260020318410
2600000121660000000700070004202601020000012166        100000202601021001132026010901000000047926134MENDOZA LIMAYLLA  CECINIO ROYCE                             MULTIPAGOSEE                  BN.COM.PE                     1SOLES          0000000000000000000000000006700000001MINISTERIO DE TRANSPORTES Y COMUNICACIONES                  ENTIDAD EXTERNA                                             PASARELA PAGO ENTIDAD EXTERNA                               1767366003931  00000296090    000000000000000000000  20260102100006202601021000060000000000000020260102100113VSA000996260021664499
2600000121790000000700070004202601020000012179        100000202601021002102026010901000000025678635JAHNSEN LECCA  OSCAR TEOBALDO DOMINGO                       MULTIPAGOSEE                  BN.COM.PE                     1SOLES          0000000000000000000000000006700000001MINISTERIO DE TRANSPORTES Y COMUNICACIONES                  ENTIDAD EXTERNA                                             PASARELA PAGO ENTIDAD EXTERNA                               1767366016040  00000296090    000000000000000000000  20260102100018202601021000180000000000000020260102100210VSA000996260021665583
2600000123330000000700070004202601020000012333        100000202601021004522026010901000000061211567ROJAS ARANDA  JOSE LUIS                                     MULTIPAGOSEE                  BN.COM.PE                     1SOLES          0000000000000000000000000006700000001MINISTERIO DE TRANSPORTES Y COMUNICACIONES                  ENTIDAD EXTERNA                                             PASARELA PAGO ENTIDAD EXTERNA                               1767366186370  00000296090    000000000000000000000  20260102100308202601021003080000000000000020260102100452VSA000995260020322619
2600000123800000000700070004202601020000012380        100000202601021006202026010901000000009967264TORRE VALLEJOS  JUAN GABRIEL                                MULTIPAGOSEE                  BN.COM.PE                     1SOLES          0000000000000000000000000006700000001MINISTERIO DE TRANSPORTES Y COMUNICACIONES                  ENTIDAD EXTERNA                                             PASARELA PAGO ENTIDAD EXTERNA                               1767366237781  00000296090    000000000000000000000  20260102100359202601021003590000000000000020260102100620VSA000996260021670327
2600000124080000000700070004202601020000012408        100000202601021005252026010901000000025678635JAHNSEN LECCA  OSCAR TEOBALDO DOMINGO                       MULTIPAGOSEE                  BN.COM.PE                     1SOLES          0000000000000000000000000014700000001MINISTERIO DE TRANSPORTES Y COMUNICACIONES                  ENTIDAD EXTERNA                                             PASARELA PAGO ENTIDAD EXTERNA                               1767366261352  00000296090    000000000000000000000  20260102100423202601021004230000000000000020260102100525VSA000995260020322995
2600000124410000000700070004202601020000012441        100000202601021006122026010901000000009715590MALLCCO HUAYASCACHI ROMOLO                                  MULTIPAGOSEE                  BN.COM.PE                     1SOLES          0000000000000000000000000006700000001MINISTERIO DE TRANSPORTES Y COMUNICACIONES                  ENTIDAD EXTERNA                                             PASARELA PAGO ENTIDAD EXTERNA                               1767366299957  00000296090    000000000000000000000  20260102100502202601021005020000000000000020260102100612VSA000996260021670214
2600000124450000000700070004202601020000012445        100000202601021005382026010901000000010494175CAMPANA OLAZABAL  LUIS ANTONIO                              MULTIPAGOSEE                  BN.COM.PE                     1SOLES          0000000000000000000000000014700000001MINISTERIO DE TRANSPORTES Y COMUNICACIONES                  ENTIDAD EXTERNA                                             PASARELA PAGO ENTIDAD EXTERNA                               1767366301150  00000296090    000000000000000000000  20260102100503202601021005030000000000000020260102100538VSA000996260021669545
2600000124540000000700070004202601020000012454        100000202601021006042026010901000000006687001CARDENAS MENDIVIL  WILVER EDY                               MULTIPAGOSEE                  BN.COM.PE                     1SOLES          0000000000000000000000000006700000001MINISTERIO DE TRANSPORTES Y COMUNICACIONES                  ENTIDAD EXTERNA                                             PASARELA PAGO ENTIDAD EXTERNA                               1767366309521  00000296090    000000000000000000000  20260102100511202601021005110000000000000020260102100604VSA000995260020323423
2600000125200000000700070004202601020000012520        100000202601021008072026010901000000046216567FASABI FALCON  MIQUI                                        MULTIPAGOSEE                  BN.COM.PE                     1SOLES          0000000000000000000000000014700000001MINISTERIO DE TRANSPORTES Y COMUNICACIONES                  ENTIDAD EXTERNA                                             PASARELA PAGO ENTIDAD EXTERNA                               1767366367395  00000296090    000000000000000000000  20260102100609202601021006090000000000000020260102100807VSA000995260020324962
2600000125330000000700070004202601020000012533        100000202601021007202026010901000000007518027OQUENDO CANAL  LUCIO                                        MULTIPAGOSEE                  BN.COM.PE                     1SOLES          0000000000000000000000000014700000001MINISTERIO DE TRANSPORTES Y COMUNICACIONES                  ENTIDAD EXTERNA                                             PASARELA PAGO ENTIDAD EXTERNA                               1767366378354  00000296090    000000000000000000000  20260102100620202601021006200000000000000020260102100720VSA000995260020324376
